{
  "transactions": [
    {
      "hash": "0xd05445b0d4278764e590e1955f0f3234df871516cb765364026c43b318a4b0b9",
      "transactionType": "CREATE",
      "contractName": "MockERC721",
      "contractAddress": "0x1a9a20032f88a11f4366082605b76f815ed9257f",
      "function": null,
      "arguments": null,
      "transaction": {
        "from": "0xa5844eef46b34894898b7050cef5f4d225e92fbe",
        "gas": "0x4dc8d",
        "value": "0x0",
        "input": "0x6080806040523461001657610379908161001b8239f35b5f80fdfe6080604090808252600480361015610015575f80fd5b5f3560e01c91826301ffc9a7146102ba57508163081812fc1461029f578163095ea7b31461028557816323b872dd1461028057816342842e0e146102805781636352211e146102015781636a6278421461018e57816370a082311461017157816375794a3c14610153578163a22cb4651461012d578163b88d4fde146100d3575063e985e9c5146100a4575f80fd5b346100cf57806003193601126100cf576020906100bf6102e6565b506100c86102fc565b50515f8152f35b5f80fd5b346100cf5760803660031901126100cf576100ec6102e6565b506100f56102fc565b506064359067ffffffffffffffff908183116100cf57366023840112156100cf578201359081116100cf57369101602401116100cf57005b82346100cf573660031901126100cf576101456102e6565b50602435801515036100cf57005b82346100cf575f3660031901126100cf576020906001549051908152f35b82346100cf5760203660031901126100cf576020906100c86102e6565b82346100cf5760203660031901126100cf576101a86102e6565b60015491905f1983146101ee576020935060018301600155825f525f8452815f209060018060a01b03166bffffffffffffffffffffffff60a01b82541617905551908152f35b601184634e487b7160e01b5f525260245ffd5b9050346100cf5760203660031901126100cf5780355f9081526020819052829020546001600160a01b031690811561023d575060209151908152f35b606490602084519162461bcd60e51b8352820152601960248201527f4552433732313a206e6f6e6578697374656e7420746f6b656e000000000000006044820152fd5b610312565b82346100cf573660031901126100cf5761029d6102e6565b005b82346100cf5760203660031901126100cf57602090515f8152f35b90346100cf5760203660031901126100cf57356001600160e01b03198116036100cf5780600160209252f35b600435906001600160a01b03821682036100cf57565b602435906001600160a01b03821682036100cf57565b346100cf5760603660031901126100cf576001600160a01b03600435818116036100cf57602435908116036100cf5700fea2646970667358221220e3fc5b33de934f41b4da779eaa9f2e42b6e25e2c2d72685c8d3dd80ee79ec27964736f6c63430008170033",
        "nonce": "0x46",
        "chainId": "0xaa044c"
      },
      "additionalContracts": [],
      "isFixedGasLimit": false
    },
    {
      "hash": "0xb0ba85053368204f763f400279aeac2625b5b3ca79d1446d9d1841a5a26f2313",
      "transactionType": "CREATE",
      "contractName": "MockERC20",
      "contractAddress": "0x67d0c491bfd98da9a6ee6f114fed78db06574da2",
      "function": null,
      "arguments": null,
      "transaction": {
        "from": "0xa5844eef46b34894898b7050cef5f4d225e92fbe",
        "gas": "0x96161",
        "value": "0x0",
        "input": "0x60806040523461010f576100135f54610113565b601f81116100c8575b507f4d6f636b205553444300000000000000000000000000000000000000000000125f556001805461004d90610113565b601f8111610081575b600a646d5553444360d81b016001556002805460ff1916600617905560405161064c908161014c8239f35b60015f52601f0160051c7fb10e2d527612073b26eecdfd717e6a320cf44b4afac2b0732d9fcbe2b7fa0cf6908101905b8181106100be5750610056565b5f815582016100b1565b5f8052601f0160051c7f290decd9548b62a8d60345a988386fc84ba6bc95484008f6362f93160ef3e563908101905b818110610104575061001c565b5f81556001016100f7565b5f80fd5b90600182811c92168015610141575b602083101461012d57565b634e487b7160e01b5f52602260045260245ffd5b91607f169161012256fe6080604081815260049182361015610015575f80fd5b5f3560e01c90816306fdde031461045b57508063095ea7b31461041b57806318160ddd146103fd57806323b872dd14610317578063313ce567146102f657806340c10f19146102a557806370a082311461026e57806395d89b411461014c578063a9059cbb146100da5763dd62ed3e1461008d575f80fd5b346100d657806003193601126100d6576020916100a8610579565b6100b061058f565b6001600160a01b039182165f908152928552838320911682528352819020549051908152f35b5f80fd5b50346100d657806003193601126100d6576020906100f6610579565b60243590335f526003845261011082845f205410156105a5565b335f5260038452825f206101258382546105e8565b905560018060a01b03165f5260038352610143825f20918254610609565b90555160018152f35b50346100d6575f3660031901126100d6578051905f60018054908160011c9060018316928315610264575b60209384841081146102515783885290811561023557506001146101df575b505050829003601f01601f191682019267ffffffffffffffff8411838510176101cc57508291826101c8925282610532565b0390f35b604190634e487b7160e01b5f525260245ffd5b60015f908152929350837fb10e2d527612073b26eecdfd717e6a320cf44b4afac2b0732d9fcbe2b7fa0cf65b83851061022157505050508301015f8080610196565b80548886018301529301928490820161020b565b60ff1916878501525050151560051b84010190505f8080610196565b602289634e487b7160e01b5f525260245ffd5b91607f1691610177565b50346100d65760203660031901126100d6576020906001600160a01b03610293610579565b165f5260038252805f20549051908152f35b50346100d657806003193601126100d6576102f1906102c2610579565b6001600160a01b03165f908152600360205220805460243591906102e7908390610609565b9055600554610609565b600555005b50346100d6575f3660031901126100d65760209060ff600254169051908152f35b50346100d65760603660031901126100d657610331610579565b61033961058f565b906044359160018060a01b03809216805f526020956003875261036185875f205410156105a5565b815f52808752855f20335f52875284865f2054106103c157815f528652845f20335f528652845f206103948582546105e8565b90555f5260038552835f206103aa8482546105e8565b9055165f5260038352610143825f20918254610609565b855162461bcd60e51b81529081018790526016602482015275496e73756666696369656e7420616c6c6f77616e636560501b6044820152606490fd5b50346100d6575f3660031901126100d6576020906005549051908152f35b50346100d657806003193601126100d657602091610437610579565b90335f528352815f209060018060a01b03165f528252602435815f20555160018152f35b919050346100d6575f3660031901126100d6575f805460018160011c9060018316928315610528575b60209384841081146102515783885290811561023557506001146104d457505050829003601f01601f191682019267ffffffffffffffff8411838510176101cc57508291826101c8925282610532565b5f808052929350837f290decd9548b62a8d60345a988386fc84ba6bc95484008f6362f93160ef3e5635b83851061051457505050508301015f8080610196565b8054888601830152930192849082016104fe565b91607f1691610484565b602080825282518183018190529093925f5b82811061056557505060409293505f838284010152601f8019910116010190565b818101860151848201604001528501610544565b600435906001600160a01b03821682036100d657565b602435906001600160a01b03821682036100d657565b156105ac57565b60405162461bcd60e51b8152602060048201526014602482015273496e73756666696369656e742062616c616e636560601b6044820152606490fd5b919082039182116105f557565b634e487b7160e01b5f52601160045260245ffd5b919082018092116105f55756fea2646970667358221220c5104f336542d62e5d4268880e5dc7e4e8c2f1f6e3fef57c109b030d3479da0b64736f6c63430008170033",
        "nonce": "0x47",
        "chainId": "0xaa044c"
      },
      "additionalContracts": [],
      "isFixedGasLimit": false
    },
    {
      "hash": "0x30a9a19b2ff9935ec65d7162af1de625368268bc3d3b19426455e1e2b4aff799",
      "transactionType": "CREATE",
      "contractName": "ServiceRegistry",
      "contractAddress": "0x484aba757a92ee9b29a56b8becfd59a80fc1c46d",
      "function": null,
      "arguments": [
        "0x1a9a20032f88A11f4366082605B76F815ED9257F"
      ],
      "transaction": {
        "from": "0xa5844eef46b34894898b7050cef5f4d225e92fbe",
        "gas": "0x195cac",
        "value": "0x0",
        "input": "0x60a03461008b57601f6116bd38819003918201601f19168301916001600160401b0383118484101761008f5780849260209460405283398101031261008b57516001600160a01b0381169081900361008b5780156100795760805260405161161990816100a482396080518181816109080152610efc0152f35b60405163d92e233d60e01b8152600490fd5b5f80fd5b634e487b7160e01b5f52604160045260245ffdfe6080806040526004361015610012575f80fd5b5f3560e01c9081630530984914610f2b57508063134e18f414610ee75780633c3f8c6414610ea15780636696ff2614610e645780636effd6e41461082c578063b581699914610417578063bf00fae314610398578063c22c4f43146102ba578063cce672261461029f578063ec9c321214610214578063ef0e239b14610143578063f6c53d9b146101275763fdea812f146100ab575f80fd5b3461012357602080600319360112610123576004355f52600360205260405f20906040519081602084549182815201935f5260205f20915f905b82821061010c57610108856100fc81890382611178565b60405191829182610f90565b0390f35b8354865294850194600193840193909101906100e5565b5f80fd5b34610123575f3660031901126101235760205f54604051908152f35b346101235760203660031901126101235761015c611371565b506004355f52600160205261010860405f2060096040519161017d8361115c565b8054835260018101546001600160a01b0390811660208501526101a260028301611199565b60408501526101b360038301611199565b60608501526101c460048301611199565b608085015260058201541660a0840152600681015460c084015260ff600782015416151560e08401526008810154610100840152015461012082015260405191829160208352602083019061108b565b34610123576020366003190112610123576004355f81815260016020819052604090912001546001600160a01b0316330361028d57805f52600160205260405f206007810160ff1981541690556009429101557fd03940fb17cb0a1a204f69aebcdc5eb179c0d0c61f1d1a75872054468d7aa6655f80a2005b604051633c32397160e21b8152600490fd5b34610123575f366003190112610123576020604051600a8152f35b34610123576020366003190112610123576004355f52600160205260405f20604081549160018060a01b039081600182015416906102fa60028201611199565b61030660038301611199565b61037661031560048501611199565b956005850154169561036860068601549361035a60ff60078901541696600960088a0154990154998c519d8e9d8e6101409384938252602082015201528c019061104d565b908a820360608c015261104d565b9088820360808a015261104d565b9460a087015260c0860152151560e08501526101008401526101208301520390f35b34610123576103af6103a936610ff4565b906113d1565b906040519060408201926040835281518094526060830160608560051b850101926020809101915f905b8782106103ed578680878760208301520390f35b909192948380610409600193605f198b8203018652895161108b565b9701920192019092916103d9565b346101235760e0366003190112610123576004356024356001600160401b0381116101235761044a90369060040161100a565b91906044356001600160401b0381116101235761046b90369060040161100a565b93906064356001600160401b0381116101235761048c90369060040161100a565b9590610496611037565b9160c435151560c43503610123575f87815260016020819052604090912001546001600160a01b0316330361028d57841561081a57865f52600160205260405f20936001600160401b03861161071a57610500866104f76002880154611124565b600288016112a2565b5f86601f81116001146107b1578061052c925f916107a6575b508160011b915f199060031b1c19161790565b60028601555b6001600160401b03821161071a5761055a826105516003880154611124565b600388016112a2565b5f90601f83116001146107395761058892915f918361072e575b50508160011b915f199060031b1c19161790565b60038401555b6001600160401b03871161071a576105b6876105ad6004860154611124565b600486016112a2565b5f90601f881160011461068c579680610606927f44854e574bb78f46d4a0921e7f2d2e859684fb53c31fea549916ca23394e025998995f926106815750508160011b915f199060031b1c19161790565b60048301555b6005820180546001600160a01b0319166001600160a01b0390921691909117905560a435600682015560078101805460c435151560ff1660ff199190911617905560094291015561066a60405192839260608452606084019161133a565b60a435602083015260c435151560408301520390a2005b013590508980610574565b600484015f5260205f20915f5b601f198a16811061070257509188916001937f44854e574bb78f46d4a0921e7f2d2e859684fb53c31fea549916ca23394e0259999a601f198116106106e9575b505050811b01600483015561060c565b01355f19600384901b60f8161c191690558880806106d9565b90926020600181928686013581550194019101610699565b634e487b7160e01b5f52604160045260245ffd5b013590508a80610574565b600386939293015f5260205f20905f935b601f198416851061078e576001945083601f19811610610775575b505050811b01600384015561058e565b01355f19600384901b60f8161c19169055898080610765565b8181013583556020948501946001909301920161074a565b90508901358c610519565b50600286015f5260205f20905f5b601f1989168110610802575087601f198116106107e9575b5050600186811b016002860155610532565b8801355f19600389901b60f8161c1916905589806107d7565b9091602060018192858d0135815501930191016107bf565b604051632ef1310560e01b8152600490fd5b346101235760e0366003190112610123576024356001600160401b0381116101235761085c90369060040161100a565b6044356001600160401b0381116101235761087b90369060040161100a565b6064929192356001600160401b0381116101235761089d90369060040161100a565b6108a8929192611037565b9060c435936001600160401b0385116101235736602386011215610123576001600160401b0385600401351161012357366024866004013560051b87010111610123576040516331a9108f60e11b815260048035908201526020816024817f00000000000000000000000000000000000000000000000000000000000000006001600160a01b03165afa908115610e59575f91610e17575b50336001600160a01b0390911603610e0557851561081a57600a856004013511610df3576109b4916109a85f54986109778a61123b565b5f55604051966109868861115c565b600435885233602089015261099c368b8e61125d565b6040890152369161125d565b6060860152369161125d565b608083015260018060a01b031660a082015260a43560c0820152600160e08201524261010082015242610120820152835f52600160205260405f2090805182556001820160018060a01b036020830151166bffffffffffffffffffffffff60a01b82541617905560408101518051906001600160401b03821161071a57610a4b82610a426002870154611124565b600287016112a2565b602090601f8311600114610d8557610a7992915f9183610d0c5750508160011b915f199060031b1c19161790565b60028301555b60608101518051906001600160401b03821161071a57610aaf82610aa66003870154611124565b600387016112a2565b602090601f8311600114610d1757610add92915f9183610d0c5750508160011b915f199060031b1c19161790565b60038301555b60808101518051906001600160401b03821161071a57610b1382610b0a6004870154611124565b600487016112a2565b602090601f8311600114610c9a57826101209360099593610b48935f92610c8f5750508160011b915f199060031b1c19161790565b60048501555b6005840160018060a01b0360a0830151166bffffffffffffffffffffffff60a01b82541617905560c08101516006850155610b9e60e08201511515600786019060ff801983541691151516179055565b610100810151600885015501519101556004355f526002602052610bc58360405f206112f1565b5f5b81600401358110610c27575050610bec6020936040519260408452604084019161133a565b60a43584830152827f2f97baea4f38ff977318c4e4648cfa7b665121ba164e1cb7070d29a78f59f475339380600435940390a4604051908152f35b80610c3c60019284600401356024860161132a565b355f526003602052610c518560405f206112f1565b610c638184600401356024860161132a565b35857f6e02f3582baab8ea69670589bccc675b69e5c12f51ff41245c97ae066151fa1f5f80a301610bc7565b015190508b80610574565b90600485015f5260205f20915f5b601f1985168110610cf4575092600994926001926101209583601f19811610610cdc575b505050811b016004850155610b4e565b01515f1960f88460031b161c191690558a8080610ccc565b91926020600181928685015181550194019201610ca8565b015190508980610574565b9190600385015f5260205f20905f935b601f1984168510610d6a576001945083601f19811610610d52575b505050811b016003830155610ae3565b01515f1960f88460031b161c19169055888080610d42565b81810151835560209485019460019093019290910190610d27565b9190600285015f5260205f20905f935b601f1984168510610dd8576001945083601f19811610610dc0575b505050811b016002830155610a7f565b01515f1960f88460031b161c19169055888080610db0565b81810151835560209485019460019093019290910190610d95565b60405163ee39e85560e01b8152600490fd5b604051630e41dcbf60e21b8152600490fd5b90506020813d602011610e51575b81610e3260209383611178565b8101031261012357516001600160a01b03811681036101235789610940565b3d9150610e25565b6040513d5f823e3d90fd5b3461012357610e7236610ff4565b905f52600260205260405f20805482101561012357602091610e9391610fcb565b90546040519160031b1c8152f35b34610123576040366003190112610123576024356004355f52600360205260405f20805482101561012357602091610ed891610fcb565b90549060031b1c604051908152f35b34610123575f366003190112610123576040517f00000000000000000000000000000000000000000000000000000000000000006001600160a01b03168152602090f35b34610123576020906020600319360112610123576004355f52600260205260405f2091825480835260208301935f5260205f20915f905b828210610f7957610108856100fc81890382611178565b835486529485019460019384019390910190610f62565b60209060206040818301928281528551809452019301915f5b828110610fb7575050505090565b835185529381019392810192600101610fa9565b8054821015610fe0575f5260205f2001905f90565b634e487b7160e01b5f52603260045260245ffd5b6040906003190112610123576004359060243590565b9181601f84011215610123578235916001600160401b038311610123576020838186019501011161012357565b608435906001600160a01b038216820361012357565b91908251928382525f5b848110611077575050825f602080949584010152601f8019910116010190565b602081830181015184830182015201611057565b9061014091805182526110ea6110d86110c660208401519560018060a01b03809716602087015260408501519080604088015286019061104d565b6060840151858203606087015261104d565b6080830151848203608086015261104d565b9260a08201511660a083015260c081015160c083015260e0810151151560e083015261010080820151908301526101208091015191015290565b90600182811c92168015611152575b602083101461113e57565b634e487b7160e01b5f52602260045260245ffd5b91607f1691611133565b61014081019081106001600160401b0382111761071a57604052565b90601f801991011681019081106001600160401b0382111761071a57604052565b9060405191825f82546111ab81611124565b908184526020946001916001811690815f1461121957506001146111db575b5050506111d992500383611178565b565b5f90815285812095935091905b8183106112015750506111d993508201015f80806111ca565b855488840185015294850194879450918301916111e8565b925050506111d994925060ff191682840152151560051b8201015f80806111ca565b5f1981146112495760010190565b634e487b7160e01b5f52601160045260245ffd5b9291926001600160401b03821161071a5760405191611286601f8201601f191660200184611178565b829481845281830111610123578281602093845f960137010152565b601f82116112af57505050565b5f5260205f20906020601f840160051c830193106112e7575b601f0160051c01905b8181106112dc575050565b5f81556001016112d1565b90915081906112c8565b80546801000000000000000081101561071a5761131391600182018155610fcb565b819291549060031b91821b915f19901b1916179055565b9190811015610fe05760051b0190565b908060209392818452848401375f828201840152601f01601f1916010190565b6001600160401b03811161071a5760051b60200190565b6040519061137e8261115c565b5f6101208382815282602082015260606040820152606080820152606060808201528260a08201528260c08201528260e0820152826101008201520152565b8051821015610fe05760209160051b010190565b5f805490939092845b8481106115af5750848310156115885782850390858211611249578082101561158157505b6114088161135a565b9060406114186040519384611178565b818352601f196114278361135a565b015f5b81811061156a57505082965f945f935f5b89811080611561575b1561155557805f526001602090808252865f209060ff6007830154169081611479575b505050506114749061123b565b61143b565b8c8c959c101561149e575b505050506114946114749161123b565b97905f8080611467565b92600961154c93611474969b93611494968c51946114bb8661115c565b8354865260018060a01b03809285015416908601526114dc60028401611199565b8d8601526114ec60038401611199565b60608601526114fd60048401611199565b608086015260058301541660a0850152600682015460c0850152151560e08401526008810154610100840152015461012082015261153b828c6113bd565b52611546818b6113bd565b5061123b565b96915f80611484565b50509550955050505050565b50818610611444565b602090611575611371565b8282880101520161142a565b90506113ff565b50915050604051602081018181106001600160401b0382111761071a576040525f81529190565b805f52600160205260ff600760405f200154166115cf575b6001016113da565b946115db60019161123b565b9590506115c756fea26469706673582212209137872fb3a1d983f5c3ed5021d2e41b5b82163f9560807fbb5c8e108d3d1a3164736f6c634300081700330000000000000000000000001a9a20032f88a11f4366082605b76f815ed9257f",
        "nonce": "0x48",
        "chainId": "0xaa044c"
      },
      "additionalContracts": [],
      "isFixedGasLimit": false
    },
    {
      "hash": "0xae110cbca61184245a25028b41bbc4833b7eb8bf0a4ce8e5cd517d4820e6b1bd",
      "transactionType": "CREATE",
      "contractName": "NastarEscrow",
      "contractAddress": "0x0646f1f73dafab7ca1149ec781352e8b106f30a4",
      "function": null,
      "arguments": [
        "0x1a9a20032f88A11f4366082605B76F815ED9257F",
        "0x484Aba757a92eE9b29a56B8bEcfd59A80fC1c46d",
        "0xA5844eeF46b34894898b7050CEF5F4D225e92fbE",
        "0xA5844eeF46b34894898b7050CEF5F4D225e92fbE"
      ],
      "transaction": {
        "from": "0xa5844eef46b34894898b7050cef5f4d225e92fbe",
        "gas": "0x247214",
        "value": "0x0",
        "input": "0x610100346200015657601f6200214938819003918201601f19168301916001600160401b038311848410176200015a5780849260809460405283398101031262000156576200004e816200016e565b6200005c602083016200016e565b9062000079606062000071604086016200016e565b94016200016e565b6001600455916001600160a01b03918216801580156200014b575b801562000140575b6200012e5760805260a0528260c0528116155f146200012657505b60e052604051611fc59081620001848239608051818181610dfe01528181610eb40152611847015260a05181610548015260c0518181816107ca01528181610d36015281816116280152818161171a0152611e7f015260e05181818161067e0152818161164b015261175e0152f35b9050620000b7565b60405163d92e233d60e01b8152600490fd5b50828516156200009c565b508282161562000094565b5f80fd5b634e487b7160e01b5f52604160045260245ffd5b51906001600160a01b0382168203620001565756fe60a06040526004361015610011575f80fd5b5f3560e01c806303988f84146119165780630497275214611876578063134e18f4146118325780632de74742146117f55780633916ba381461178d5780633c03d8be146117495780634690484014611705578063486265c6146116e85780634d9879e3146116cc5780635b7baf64146114b55780635fc9e96914610d735780636318aef114610d785780636f0e530f14610d7357806374f8087b14610bfa5780637bce25dd14610b5b5780637d41702e14610aa857806382fd5bac1461083f57806385ae341d14610823578063b51c2bbd14610628578063be3782281461060c578063bf9d36fc14610594578063c732bcd214610577578063cbcf252a14610533578063ce4c27ce146104f5578063d2114e0c14610285578063ddbcb5fa14610269578063fc8edb52146101e55763fd84cb971461014d575f80fd5b346101e15760203660031901126101e1576001600454036101cf5760026004556004355f52600160205260405f2061018481611dbb565b60048101546001600160a01b031633036101bd57600a8101805460ff1916600317905542600d8201556101b690611dfb565b6001600455005b60405163239700bf60e11b8152600490fd5b60405163c5f2be5160e01b8152600490fd5b5f80fd5b346101e15760203660031901126101e157600435805f52600160205260405f2061020e81611dbb565b60048101546001600160a01b031633036101bd5780600a60029201600460ff1982541617905542600e8201550154907fd9ffa04b2f1a5f51cbd7a6f14375665b41da7e2fa73566d65b5b4f6402a47d3d6020604051428152a3005b346101e1575f3660031901126101e15760206040516103e88152f35b346101e15760403660031901126101e15767ffffffffffffffff6004356024358281116101e1576102ba903690600401611c5e565b6001939184600454036101cf576002600455835f5260209085825260405f2093600a85019060ff82541660088110156104e1578881036104ba575060058601546001600160a01b031633036104a857600c86015442116104965760098601908511610482576103338561032d8354611a63565b83611cc7565b5f85601f8111600114610421578061035f925f91610416575b508160011b915f199060031b1c19161790565b90555b600f85015460ff16156103ca57916103bd6103c59694927fffa92937e04d994d5080499878491811e39b0c12ace952efca20f1fc61afd91294600360ff1982541617905542600d880155604051938385948552840191611d5c565b0390a2611dfb565b600455005b7fffa92937e04d994d5080499878491811e39b0c12ace952efca20f1fc61afd91294509061040e91600260ff19825416179055604051938385948552840191611d5c565b0390a2600455005b90508501358b61034c565b50601f19861690825f5286865f20925f5b888d83831061046b5750505010610452575b50508785811b019055610362565b8401355f19600388901b60f8161c191690558880610444565b858a0135875590950194938401938a935001610432565b634e487b7160e01b5f52604160045260245ffd5b6040516372eec39360e01b8152600490fd5b604051635ec8235160e01b8152600490fd5b60405163f924664d60e01b8152600481018a90526044916104df906024830190611bba565bfd5b634e487b7160e01b5f52602160045260245ffd5b346101e15761050336611bc7565b905f52600360205260405f2080548210156101e15760209161052491611bdd565b90549060031b1c604051908152f35b346101e1575f3660031901126101e1576040517f00000000000000000000000000000000000000000000000000000000000000006001600160a01b03168152602090f35b346101e1575f3660031901126101e157602060405162093a808152f35b346101e1576020806003193601126101e1576004355f52600360205260405f20906040519081602084549182815201935f5260205f20915f905b8282106105f5576105f1856105e581890382611ab8565b60405191829182611c06565b0390f35b8354865294850194600193840193909101906105ce565b346101e1575f3660031901126101e15760206040516107d08152f35b346101e15760603660031901126101e15760043560243560443567ffffffffffffffff81116101e15761065f903690600401611c5e565b6001600493929354036101cf5760026004556001600160a01b039082907f00000000000000000000000000000000000000000000000000000000000000008316330361081157612710809411610809575b855f52600160205260405f20956106c687611d7c565b600a8701600760ff1982541617905542600d88015583600688015416946007880154926107d08085029085820414851517156107f5578261070991048095611d4f565b94808602928684048214871517156107f55761074c610778917f6035fff1df463a8d4d949ff5d7a0a590f113e705ade8351e5caa5e62a549fa5f95048098611d4f565b9960405193849384528b602085015288604085015287606085015260a0608085015260a0840191611d5c565b0390a2806107c4575b50806107ad575b5082610795576001600455005b60046107a49401541690611ef1565b808080806101b6565b6107be908260058701541684611ef1565b84610788565b6107ef907f000000000000000000000000000000000000000000000000000000000000000085611ef1565b85610781565b634e487b7160e01b5f52601160045260245ffd5b8391506106b0565b60405163773839b160e11b8152600490fd5b346101e1575f3660031901126101e1576020604051610e108152f35b346101e15760203660031901126101e1575f6101e060405161086081611a9b565b8281528260208201528260408201528260608201528260808201528260a08201528260c08201528260e082015260606101008201526060610120820152826101408201528261016082015282610180820152826101a0820152826101c082015201526004355f52600160205260405f20604051906108dd82611a9b565b8054825260018101546020830152600281015460408301526003810154606083015260048101546001600160a01b0390811660808401526005820154811660a084015260068201541660c0830152600781015460e083015261094160088201611ada565b61010083015261095360098201611ada565b61012083015260ff600a8201541660088110156104e15760ff91600f91610140850152600b810154610160850152600c810154610180850152600d8101546101a0850152600e8101546101c085015201541615156101e08201526040518091602082528051602083015260208101516040830152604081015160608301526060810151608083015260018060a01b0360808201511660a083015260018060a01b0360a08201511660c083015260018060a01b0360c08201511660e083015260e08101516101008301526101008101516101e0610a59610a416102009384610120880152610220870190611b7c565b610120850151868203601f1901610140880152611b7c565b92610a6e610140820151610160870190611bba565b6101608101516101808601526101808101516101a08601526101a08101516101c08601526101c08101518286015201511515908301520390f35b346101e15760203660031901126101e157600435805f52600160205260405f20600a81019081549160ff831660088110156104e15780610b37575060058201546001600160a01b031633036104a857600c820154421161049657600160039360ff19161790550154907f0fc3075ed12a7c6ae22f03793f31154b739fde75f708d06516d08d57a09b0d515f80a3005b60405163f924664d60e01b81525f60048201526044916104df906024830190611bba565b346101e15760203660031901126101e1576001600454036101cf5760026004556004355f52600160205260405f20610b9281611dbb565b60058101546001600160a01b031633036104a857600c81015462093a8081018091116107f557804210610bdd57600a8201805460ff1916600317905542600d8301556101b682611dfb565b60449060405190628ea4db60e21b82526004820152426024820152fd5b346101e15760203660031901126101e1576004356001600454036101cf576002600455805f52600160205260405f2090610c3382611d7c565b6005820180549092906001600160a01b0390811633036104a857600e8201546203f48081018091116107f557421015610d6157600a8201600760ff1982541617905542600d830155806006830154169160078101546107d08082029082820414821517156107f557612710610caa91048092611d4f565b90610cb98260011c8093611d4f565b957ff4be77ec062d5f7654b87bb36e58ea9f81d5f66dbdb9eac1665caf87f4a7cad06060604051858152896020820152846040820152a280610d30575b508281610d19575b50505082610d0d576001600455005b6107a493541690611ef1565b6004610d289301541684611ef1565b848082610cfe565b610d5b907f000000000000000000000000000000000000000000000000000000000000000086611ef1565b86610cf6565b604051634e40bea160e11b8152600490fd5b611c41565b346101e1576101003660031901126101e1576064356001600160a01b03811681036101e15760a43567ffffffffffffffff81116101e157610dbd903690600401611c5e565b919060e43580151581036101e1576001600454036101cf5760026004556040516331a9108f60e11b8152602435600482015260208160248160018060a01b037f0000000000000000000000000000000000000000000000000000000000000000165afa908115611420575f91611496575b50336001600160a01b039091160361148457604435602435146113dd5760843515611472576103e860843510611460576001600160a01b0383161561144e5762278d0042018042116107f55760c4351161143c57610e1042018042116107f55760c4351061142b576040516331a9108f60e11b81526044356004820152916020836024817f00000000000000000000000000000000000000000000000000000000000000006001600160a01b03165afa928315611420575f936113ef575b50336001600160a01b038416146113dd575f54945f1986146107f557600186015f5560405193610f1b85611a9b565b8685526004356020860152602435604086015260443560608601523360808601526001600160a01b0390811660a0860152851660c085015260843560e0850152610f6481611cab565b91610f726040519384611ab8565b81835236828201116101e157815f92602092838601378301015261010083015260405180602081011067ffffffffffffffff60208301111761048257602081016040525f81526101208301525f6101408301524261016083015260c4356101808301525f6101a08301525f6101c083015215156101e0820152825f52600160205260405f20815181556020820151600182015560408201516002820155606082015160038201556004810160018060a01b03608084015116906bffffffffffffffffffffffff60a01b91828254161790556005820160018060a01b0360a08501511682825416179055600682019060018060a01b0360c0850151169082541617905560e0820151600782015561010082015180519067ffffffffffffffff8211610482576110b0826110a76008860154611a63565b60088601611cc7565b602090601f831160011461136f576110df92915f91836112f6575b50508160011b915f199060031b1c19161790565b60088201555b61012082015180519067ffffffffffffffff8211610482576111178261110e6009860154611a63565b60098601611cc7565b602090601f83116001146113015761114592915f91836112f65750508160011b915f199060031b1c19161790565b60098201555b6101408201519060088210156104e1576101e0600f60ff928319948486600a84015416911617600a820155610160860151600b820155610180860151600c8201556101a0860151600d8201556101c0860151600e8201550193015115159183541691161790556024355f5260026020526111c88260405f20611d16565b6044355f5260036020526111df8260405f20611d16565b604051600435815260018060a01b0382166020820152608435604082015260c435606082015260443590837f6bb122e4b14a41d111379967e6fd6c18cdd1cab504eea94e1765d3bded713ce6608060243593a460405160208101916323b872dd60e01b835233602483015230604483015260843560648301526064825260a082019282841067ffffffffffffffff8511176104825760409390935290515f92839283906001600160a01b03165af1611295611eaa565b90159081156112c6575b506112b4576020906001600455604051908152f35b6040516312171d8360e31b8152600490fd5b80518015159250826112db575b50508261129f565b6112ee9250602080918301019101611ed9565b1582806112d3565b0151905087806110cb565b9190600984015f5260205f20905f935b601f1984168510611354576001945083601f1981161061133c575b505050811b01600982015561114b565b01515f1960f88460031b161c1916905586808061132c565b81810151835560209485019460019093019290910190611311565b9190600884015f5260205f20905f935b601f19841685106113c2576001945083601f198116106113aa575b505050811b0160088201556110e5565b01515f1960f88460031b161c1916905586808061139a565b8181015183556020948501946001909301929091019061137f565b60405163702d685960e01b8152600490fd5b61141291935060203d602011611419575b61140a8183611ab8565b810190611c8c565b9185610eec565b503d611400565b6040513d5f823e3d90fd5b6040516296ff9960e31b8152600490fd5b6040516354090af960e01b8152600490fd5b60405163d92e233d60e01b8152600490fd5b60405163617ab12d60e11b8152600490fd5b604051631f2a200560e01b8152600490fd5b604051630e41dcbf60e21b8152600490fd5b6114af915060203d6020116114195761140a8183611ab8565b85610e2e565b346101e15760203660031901126101e15760043560019081600454036101cf576002600455805f528160205260405f2090600482019160018060a01b03908184541633036101bd57600a810180545f9060ff811660088110156104e1578015806116bf575b156115ae57505050600660ff1982541617905584837f4877925cd1e279c5d3b475b58cf04cbb9e3b70c517a2305ac4933c34d28ca24f5f80a25b1561159c576007826103c595541692600683015416910154927f0d759492754b3de794f1a978637f5e06fa6d5f61b11065953d46285d9c83f5bd6020604051868152a2611ef1565b604051631ba168fb60e11b8152600490fd5b888114806116b2575b156115f557505050600660ff1982541617905584837f4877925cd1e279c5d3b475b58cf04cbb9e3b70c517a2305ac4933c34d28ca24f5f80a2611554565b91929091600414611608575b5050611554565b909150600e8301546203f48081018091116107f5578042106116945750837f000000000000000000000000000000000000000000000000000000000000000016847f00000000000000000000000000000000000000000000000000000000000000001603611682576005879260ff19161790558680611601565b6040516305d5465560e31b8152600490fd5b60449060405190635393528b60e11b82526004820152426024820152fd5b50600c85015442116115b7565b50600c850154421161151a565b346101e1575f3660031901126101e15760205f54604051908152f35b346101e1575f3660031901126101e15760206040516203f4808152f35b346101e1575f3660031901126101e1576040517f00000000000000000000000000000000000000000000000000000000000000006001600160a01b03168152602090f35b346101e1575f3660031901126101e1576040517f00000000000000000000000000000000000000000000000000000000000000006001600160a01b03168152602090f35b346101e1576020806003193601126101e1576004355f52600260205260405f20906040519081602084549182815201935f5260205f20915f905b8282106117de576105f1856105e581890382611ab8565b8354865294850194600193840193909101906117c7565b346101e15761180336611bc7565b905f52600260205260405f2080548210156101e15760209161182491611bdd565b90546040519160031b1c8152f35b346101e1575f3660031901126101e1576040517f00000000000000000000000000000000000000000000000000000000000000006001600160a01b03168152602090f35b346101e15760203660031901126101e1576001600454036101cf5760026004556004355f52600160205260405f206118ad81611d7c565b60058101546001600160a01b031633036104a857600e81015462278d0081018091116107f5578042106118f857600a8201805460ff1916600317905542600d8301556101b682611dfb565b60449060405190636a3d3fe360e01b82526004820152426024820152fd5b346101e15760203660031901126101e1576004355f52600160205260405f2080549060018101549060028101546003820154600160a01b600190039485600485015416908660058601541696600686015416906007860154906008870161197c90611ada565b9161198960098901611ada565b93600a89015460ff169a600b8a015496600c8b015498600d8c01549a600e8d01549c600f015460ff169d60405160805261020097608051526080516020015260805160400152608051606001526080516080015260805160a0015260805160c0015260805160e0015280608051610100015260805101611a0891611b7c565b60805181036080516101200152611a1e91611b7c565b9560805161014001611a2f91611bba565b608051610160015260805161018001526080516101a001526080516101c0015215156080516101e001526080519003608051f35b90600182811c92168015611a91575b6020831014611a7d57565b634e487b7160e01b5f52602260045260245ffd5b91607f1691611a72565b610200810190811067ffffffffffffffff82111761048257604052565b90601f8019910116810190811067ffffffffffffffff82111761048257604052565b9060405191825f8254611aec81611a63565b908184526020946001916001811690815f14611b5a5750600114611b1c575b505050611b1a92500383611ab8565b565b5f90815285812095935091905b818310611b42575050611b1a93508201015f8080611b0b565b85548884018501529485019487945091830191611b29565b92505050611b1a94925060ff191682840152151560051b8201015f8080611b0b565b91908251928382525f5b848110611ba6575050825f602080949584010152601f8019910116010190565b602081830181015184830182015201611b86565b9060088210156104e15752565b60409060031901126101e1576004359060243590565b8054821015611bf2575f5260205f2001905f90565b634e487b7160e01b5f52603260045260245ffd5b60209060206040818301928281528551809452019301915f5b828110611c2d575050505090565b835185529381019392810192600101611c1f565b346101e1575f3660031901126101e157602060405162278d008152f35b9181601f840112156101e15782359167ffffffffffffffff83116101e157602083818601950101116101e157565b908160209103126101e157516001600160a01b03811681036101e15790565b67ffffffffffffffff811161048257601f01601f191660200190565b601f8211611cd457505050565b5f5260205f20906020601f840160051c83019310611d0c575b601f0160051c01905b818110611d01575050565b5f8155600101611cf6565b9091508190611ced565b80546801000000000000000081101561048257611d3891600182018155611bdd565b819291549060031b91821b915f19901b1916179055565b919082039182116107f557565b908060209392818452848401375f828201840152601f01601f1916010190565b600a015460ff1660088110156104e15760048103611d975750565b60405163f924664d60e01b81526004808201526044916104df906024830190611bba565b600a015460ff1660088110156104e15760028103611dd65750565b60405163f924664d60e01b8152600260048201526044916104df906024830190611bba565b60018060a01b03806006830154166007830154916107d08084029084820414841517156107f557611b1a94611e37612710600593048096611d4f565b9481547f288c4f69e41b68e52705717bf70617f3c77f4a2de96489356afc0591a806448560408051898152846020820152a280611e79575b5001541690611ef1565b611ea4907f000000000000000000000000000000000000000000000000000000000000000086611ef1565b5f611e6f565b3d15611ed4573d90611ebb82611cab565b91611ec96040519384611ab8565b82523d5f602084013e565b606090565b908160209103126101e1575180151581036101e15790565b60405163a9059cbb60e01b602082019081526001600160a01b03938416602483015260448083019590955293815291926080830167ffffffffffffffff811184821017610482575f94859485926040525193165af1611f4e611eaa565b9015908115611f5f575b506112b457565b8051801515925082611f74575b50505f611f58565b611f879250602080918301019101611ed9565b155f80611f6c56fea2646970667358221220682a2780664810c0a4bb5834105ebda2b094f8647b73592b3992f1dcb2a284b964736f6c634300081700330000000000000000000000001a9a20032f88a11f4366082605b76f815ed9257f000000000000000000000000484aba757a92ee9b29a56b8becfd59a80fc1c46d000000000000000000000000a5844eef46b34894898b7050cef5f4d225e92fbe000000000000000000000000a5844eef46b34894898b7050cef5f4d225e92fbe",
        "nonce": "0x49",
        "chainId": "0xaa044c"
      },
      "additionalContracts": [],
      "isFixedGasLimit": false
    },
    {
      "hash": "0xbc928dcd404eb021359ad119f1754b01f8487c2f5de5b940b0f9f110eb17e581",
      "transactionType": "CALL",
      "contractName": "MockERC721",
      "contractAddress": "0x1a9a20032f88a11f4366082605b76f815ed9257f",
      "function": "mint(address)",
      "arguments": [
        "0xA5844eeF46b34894898b7050CEF5F4D225e92fbE"
      ],
      "transaction": {
        "from": "0xa5844eef46b34894898b7050cef5f4d225e92fbe",
        "to": "0x1a9a20032f88a11f4366082605b76f815ed9257f",
        "gas": "0x179ef",
        "value": "0x0",
        "input": "0x6a627842000000000000000000000000a5844eef46b34894898b7050cef5f4d225e92fbe",
        "nonce": "0x4a",
        "chainId": "0xaa044c"
      },
      "additionalContracts": [],
      "isFixedGasLimit": false
    },
    {
      "hash": "0x0632fef88ef994ad7396d188106dcf3c4169c55aa96aca9bd371fa8423b5aa91",
      "transactionType": "CALL",
      "contractName": "MockERC721",
      "contractAddress": "0x1a9a20032f88a11f4366082605b76f815ed9257f",
      "function": "mint(address)",
      "arguments": [
        "0xA5844eeF46b34894898b7050CEF5F4D225e92fbE"
      ],
      "transaction": {
        "from": "0xa5844eef46b34894898b7050cef5f4d225e92fbe",
        "to": "0x1a9a20032f88a11f4366082605b76f815ed9257f",
        "gas": "0x108ac",
        "value": "0x0",
        "input": "0x6a627842000000000000000000000000a5844eef46b34894898b7050cef5f4d225e92fbe",
        "nonce": "0x4b",
        "chainId": "0xaa044c"
      },
      "additionalContracts": [],
      "isFixedGasLimit": false
    },
    {
      "hash": "0x3ebe2bfa1e1631b2a82ad55dfd9f5f3941c137ccbe7b05a4817810c4336f40fa",
      "transactionType": "CALL",
      "contractName": "MockERC721",
      "contractAddress": "0x1a9a20032f88a11f4366082605b76f815ed9257f",
      "function": "mint(address)",
      "arguments": [
        "0xA5844eeF46b34894898b7050CEF5F4D225e92fbE"
      ],
      "transaction": {
        "from": "0xa5844eef46b34894898b7050cef5f4d225e92fbe",
        "to": "0x1a9a20032f88a11f4366082605b76f815ed9257f",
        "gas": "0x108ac",
        "value": "0x0",
        "input": "0x6a627842000000000000000000000000a5844eef46b34894898b7050cef5f4d225e92fbe",
        "nonce": "0x4c",
        "chainId": "0xaa044c"
      },
      "additionalContracts": [],
      "isFixedGasLimit": false
    },
    {
      "hash": "0xfa747f06cbd6ef85b8447d4d31f6381a77f6985f16b136cf0ee61a1d969ad1bd",
      "transactionType": "CALL",
      "contractName": "MockERC721",
      "contractAddress": "0x1a9a20032f88a11f4366082605b76f815ed9257f",
      "function": "mint(address)",
      "arguments": [
        "0xA5844eeF46b34894898b7050CEF5F4D225e92fbE"
      ],
      "transaction": {
        "from": "0xa5844eef46b34894898b7050cef5f4d225e92fbe",
        "to": "0x1a9a20032f88a11f4366082605b76f815ed9257f",
        "gas": "0x108ac",
        "value": "0x0",
        "input": "0x6a627842000000000000000000000000a5844eef46b34894898b7050cef5f4d225e92fbe",
        "nonce": "0x4d",
        "chainId": "0xaa044c"
      },
      "additionalContracts": [],
      "isFixedGasLimit": false
    },
    {
      "hash": "0xb3b83be6783eebfc3346868dc63aac02d315927a1e2164e4f608bac1960f3c66",
      "transactionType": "CALL",
      "contractName": "MockERC721",
      "contractAddress": "0x1a9a20032f88a11f4366082605b76f815ed9257f",
      "function": "mint(address)",
      "arguments": [
        "0x1Eb33c5149a6c59B766b9f0D6dA410Af0269f4e4"
      ],
      "transaction": {
        "from": "0xa5844eef46b34894898b7050cef5f4d225e92fbe",
        "to": "0x1a9a20032f88a11f4366082605b76f815ed9257f",
        "gas": "0x108ac",
        "value": "0x0",
        "input": "0x6a6278420000000000000000000000001eb33c5149a6c59b766b9f0d6da410af0269f4e4",
        "nonce": "0x4e",
        "chainId": "0xaa044c"
      },
      "additionalContracts": [],
      "isFixedGasLimit": false
    },
    {
      "hash": "0xa0384a2aa76ad0e02870c3dd236979eb8b2354de4c1b4a80709f6f002c673b6a",
      "transactionType": "CALL",
      "contractName": "ServiceRegistry",
      "contractAddress": "0x484aba757a92ee9b29a56b8becfd59a80fc1c46d",
      "function": "registerService(uint256,string,string,string,address,uint256,bytes32[])",
      "arguments": [
        "0",
        "Web Research & Summary",
        "Deep web research on any topic. Returns structured summary with sources.",
        "https://api-production-a473.up.railway.app/v1/hosted",
        "0x67D0C491bfd98DA9a6Ee6f114Fed78db06574DA2",
        "2000000000000000000",
        "[0x95f7801c97b17401c2c5a5b8fdb4f956cc377f647e35794f5b5da6aed60cd40d, 0x9042323cd85c6576992d211de34b3ecc183f15e4f639aa87859882f839c374e5]"
      ],
      "transaction": {
        "from": "0xa5844eef46b34894898b7050cef5f4d225e92fbe",
        "to": "0x484aba757a92ee9b29a56b8becfd59a80fc1c46d",
        "gas": "0xa0f55",
        "value": "0x0",
        "input": "0x6effd6e4000000000000000000000000000000000000000000000000000000000000000000000000000000000000000000000000000000000000000000000000000000e0000000000000000000000000000000000000000000000000000000000000012000000000000000000000000000000000000000000000000000000000000001a000000000000000000000000067d0c491bfd98da9a6ee6f114fed78db06574da20000000000000000000000000000000000000000000000001bc16d674ec800000000000000000000000000000000000000000000000000000000000000000200000000000000000000000000000000000000000000000000000000000000001657656220526573656172636820262053756d6d6172790000000000000000000000000000000000000000000000000000000000000000000000000000000000484465657020776562207265736561726368206f6e20616e7920746f7069632e2052657475726e7320737472756374757265642073756d6d617279207769746820736f75726365732e000000000000000000000000000000000000000000000000000000000000000000000000000000000000000000000000000000000000003468747470733a2f2f6170692d70726f64756374696f6e2d613437332e75702e7261696c7761792e6170702f76312f686f73746564000000000000000000000000000000000000000000000000000000000000000000000000000000000000000295f7801c97b17401c2c5a5b8fdb4f956cc377f647e35794f5b5da6aed60cd40d9042323cd85c6576992d211de34b3ecc183f15e4f639aa87859882f839c374e5",
        "nonce": "0x4f",
        "chainId": "0xaa044c"
      },
      "additionalContracts": [],
      "isFixedGasLimit": false
    },
    {
      "hash": "0x6cc984338b30a74bc241b693223c5beffb528980b5bea53cd7849cb9ba898a76",
      "transactionType": "CALL",
      "contractName": "ServiceRegistry",
      "contractAddress": "0x484aba757a92ee9b29a56b8becfd59a80fc1c46d",
      "function": "registerService(uint256,string,string,string,address,uint256,bytes32[])",
      "arguments": [
        "1",
        "Multi-Language Translator",
        "Translate text into 40+ languages with cultural context. Optimized for business docs.",
        "https://api-production-a473.up.railway.app/v1/hosted",
        "0x67D0C491bfd98DA9a6Ee6f114Fed78db06574DA2",
        "1000000000000000000",
        "[0xd3d9c5a1a300197017336746fd151d5b12bec65c878b0b75ac745337145036bd, 0x829231cb167e02f32beea96e7533af0ebdf9e1f7ccf9a7270e717c48fe6f0e8e]"
      ],
      "transaction": {
        "from": "0xa5844eef46b34894898b7050cef5f4d225e92fbe",
        "to": "0x484aba757a92ee9b29a56b8becfd59a80fc1c46d",
        "gas": "0xad283",
        "value": "0x0",
        "input": "0x6effd6e4000000000000000000000000000000000000000000000000000000000000000100000000000000000000000000000000000000000000000000000000000000e0000000000000000000000000000000000000000000000000000000000000012000000000000000000000000000000000000000000000000000000000000001a000000000000000000000000067d0c491bfd98da9a6ee6f114fed78db06574da20000000000000000000000000000000000000000000000000de0b6b3a7640000000000000000000000000000000000000000000000000000000000000000020000000000000000000000000000000000000000000000000000000000000000194d756c74692d4c616e6775616765205472616e736c61746f720000000000000000000000000000000000000000000000000000000000000000000000000000555472616e736c617465207465787420696e746f2034302b206c616e67756167657320776974682063756c747572616c20636f6e746578742e204f7074696d697a656420666f7220627573696e65737320646f63732e0000000000000000000000000000000000000000000000000000000000000000000000000000000000003468747470733a2f2f6170692d70726f64756374696f6e2d613437332e75702e7261696c7761792e6170702f76312f686f737465640000000000000000000000000000000000000000000000000000000000000000000000000000000000000002d3d9c5a1a300197017336746fd151d5b12bec65c878b0b75ac745337145036bd829231cb167e02f32beea96e7533af0ebdf9e1f7ccf9a7270e717c48fe6f0e8e",
        "nonce": "0x50",
        "chainId": "0xaa044c"
      },
      "additionalContracts": [],
      "isFixedGasLimit": false
    },
    {
      "hash": "0x4afb10c32e0c8e9a1e2f5fab4a4291e34f49605aa9b1834ba59feee0084a7189",
      "transactionType": "CALL",
      "contractName": "ServiceRegistry",
      "contractAddress": "0x484aba757a92ee9b29a56b8becfd59a80fc1c46d",
      "function": "registerService(uint256,string,string,string,address,uint256,bytes32[])",
      "arguments": [
        "2",
        "Solidity & JS Code Review",
        "Security-focused code review. Checks for reentrancy, access control, overflow.",
        "https://api-production-a473.up.railway.app/v1/hosted",
        "0x67D0C491bfd98DA9a6Ee6f114Fed78db06574DA2",
        "5000000000000000000",
        "[0x2dc081a8d6d4714c79b5abd2e9b08c3a33b4ef1dcf946ef8b8cf6c495014f47b, 0xa477d97b122e6356d32a064f9ee824230d42d04c7d66d8e7d125a091a42b0b25]"
      ],
      "transaction": {
        "from": "0xa5844eef46b34894898b7050cef5f4d225e92fbe",
        "to": "0x484aba757a92ee9b29a56b8becfd59a80fc1c46d",
        "gas": "0xad220",
        "value": "0x0",
        "input": "0x6effd6e4000000000000000000000000000000000000000000000000000000000000000200000000000000000000000000000000000000000000000000000000000000e0000000000000000000000000000000000000000000000000000000000000012000000000000000000000000000000000000000000000000000000000000001a000000000000000000000000067d0c491bfd98da9a6ee6f114fed78db06574da20000000000000000000000000000000000000000000000004563918244f4000000000000000000000000000000000000000000000000000000000000000002000000000000000000000000000000000000000000000000000000000000000019536f6c69646974792026204a5320436f64652052657669657700000000000000000000000000000000000000000000000000000000000000000000000000004e53656375726974792d666f637573656420636f6465207265766965772e20436865636b7320666f72207265656e7472616e63792c2061636365737320636f6e74726f6c2c206f766572666c6f772e000000000000000000000000000000000000000000000000000000000000000000000000000000000000000000000000003468747470733a2f2f6170692d70726f64756374696f6e2d613437332e75702e7261696c7761792e6170702f76312f686f7374656400000000000000000000000000000000000000000000000000000000000000000000000000000000000000022dc081a8d6d4714c79b5abd2e9b08c3a33b4ef1dcf946ef8b8cf6c495014f47ba477d97b122e6356d32a064f9ee824230d42d04c7d66d8e7d125a091a42b0b25",
        "nonce": "0x51",
        "chainId": "0xaa044c"
      },
      "additionalContracts": [],
      "isFixedGasLimit": false
    },
    {
      "hash": "0x696baaae1a262d5005e4463b84aad28dd899e16773bf3831fa962d166d226a34",
      "transactionType": "CALL",
      "contractName": "ServiceRegistry",
      "contractAddress": "0x484aba757a92ee9b29a56b8becfd59a80fc1c46d",
      "function": "registerService(uint256,string,string,string,address,uint256,bytes32[])",
      "arguments": [
        "3",
        "On-Chain Data Analytics",
        "Query and analyze on-chain data. Wallet profiling, DeFi exposure, token flows.",
        "https://api-production-a473.up.railway.app/v1/hosted",
        "0x67D0C491bfd98DA9a6Ee6f114Fed78db06574DA2",
        "3000000000000000000",
        "[0x8f54f1c2d0eb5771cd5bf67a6689fcd6eed9444d91a39e5ef32a9b4ae5ca14ff, 0x3fdbd17cead3ecfb37763e5ab06b1af4d166e44012e5a50d75711460f00454d9]"
      ],
      "transaction": {
        "from": "0xa5844eef46b34894898b7050cef5f4d225e92fbe",
        "to": "0x484aba757a92ee9b29a56b8becfd59a80fc1c46d",
        "gas": "0xad1fe",
        "value": "0x0",
        "input": "0x6effd6e4000000000000000000000000000000000000000000000000000000000000000300000000000000000000000000000000000000000000000000000000000000e0000000000000000000000000000000000000000000000000000000000000012000000000000000000000000000000000000000000000000000000000000001a000000000000000000000000067d0c491bfd98da9a6ee6f114fed78db06574da200000000000000000000000000000000000000000000000029a2241af62c0000000000000000000000000000000000000000000000000000000000000000020000000000000000000000000000000000000000000000000000000000000000174f6e2d436861696e204461746120416e616c7974696373000000000000000000000000000000000000000000000000000000000000000000000000000000004e517565727920616e6420616e616c797a65206f6e2d636861696e20646174612e2057616c6c65742070726f66696c696e672c2044654669206578706f737572652c20746f6b656e20666c6f77732e000000000000000000000000000000000000000000000000000000000000000000000000000000000000000000000000003468747470733a2f2f6170692d70726f64756374696f6e2d613437332e75702e7261696c7761792e6170702f76312f686f7374656400000000000000000000000000000000000000000000000000000000000000000000000000000000000000028f54f1c2d0eb5771cd5bf67a6689fcd6eed9444d91a39e5ef32a9b4ae5ca14ff3fdbd17cead3ecfb37763e5ab06b1af4d166e44012e5a50d75711460f00454d9",
        "nonce": "0x52",
        "chainId": "0xaa044c"
      },
      "additionalContracts": [],
      "isFixedGasLimit": false
    },
    {
      "hash": "0xbc4c44194b0d3e47fec7acb43fe84841adcb73673b4ad8762962de68bb2aa707",
      "transactionType": "CALL",
      "contractName": "MockERC20",
      "contractAddress": "0x67d0c491bfd98da9a6ee6f114fed78db06574da2",
      "function": "mint(address,uint256)",
      "arguments": [
        "0x1Eb33c5149a6c59B766b9f0D6dA410Af0269f4e4",
        "10000000000000000000000"
      ],
      "transaction": {
        "from": "0xa5844eef46b34894898b7050cef5f4d225e92fbe",
        "to": "0x67d0c491bfd98da9a6ee6f114fed78db06574da2",
        "gas": "0x16652",
        "value": "0x0",
        "input": "0x40c10f190000000000000000000000001eb33c5149a6c59b766b9f0d6da410af0269f4e400000000000000000000000000000000000000000000021e19e0c9bab2400000",
        "nonce": "0x53",
        "chainId": "0xaa044c"
      },
      "additionalContracts": [],
      "isFixedGasLimit": false
    },
    {
      "hash": null,
      "transactionType": "CALL",
      "contractName": "MockERC20",
      "contractAddress": "0x67d0c491bfd98da9a6ee6f114fed78db06574da2",
      "function": "approve(address,uint256)",
      "arguments": [
        "0x0646f1f73dAfaB7cA1149EC781352E8B106f30A4",
        "115792089237316195423570985008687907853269984665640564039457584007913129639935"
      ],
      "transaction": {
        "from": "0x1eb33c5149a6c59b766b9f0d6da410af0269f4e4",
        "to": "0x67d0c491bfd98da9a6ee6f114fed78db06574da2",
        "gas": "0xefd7",
        "value": "0x0",
        "input": "0x095ea7b30000000000000000000000000646f1f73dafab7ca1149ec781352e8b106f30a4ffffffffffffffffffffffffffffffffffffffffffffffffffffffffffffffff",
        "nonce": "0x0",
        "chainId": "0xaa044c"
      },
      "additionalContracts": [],
      "isFixedGasLimit": false
    },
    {
      "hash": null,
      "transactionType": "CALL",
      "contractName": "NastarEscrow",
      "contractAddress": "0x0646f1f73dafab7ca1149ec781352e8b106f30a4",
      "function": "createDeal(uint256,uint256,uint256,address,uint256,string,uint256,bool)",
      "arguments": [
        "0",
        "4",
        "0",
        "0x67D0C491bfd98DA9a6Ee6f114Fed78db06574DA2",
        "2000000000000000000",
        "Research Celo ecosystem growth Q1 2026",
        "1774152146",
        "false"
      ],
      "transaction": {
        "from": "0x1eb33c5149a6c59b766b9f0d6da410af0269f4e4",
        "to": "0x0646f1f73dafab7ca1149ec781352e8b106f30a4",
        "gas": "0x8a3e6",
        "value": "0x0",
        "input": "0x6318aef100000000000000000000000000000000000000000000000000000000000000000000000000000000000000000000000000000000000000000000000000000004000000000000000000000000000000000000000000000000000000000000000000000000000000000000000067d0c491bfd98da9a6ee6f114fed78db06574da20000000000000000000000000000000000000000000000001bc16d674ec8000000000000000000000000000000000000000000000000000000000000000001000000000000000000000000000000000000000000000000000000000069bf69d20000000000000000000000000000000000000000000000000000000000000000000000000000000000000000000000000000000000000000000000000000002652657365617263682043656c6f2065636f73797374656d2067726f77746820513120323032360000000000000000000000000000000000000000000000000000",
        "nonce": "0x1",
        "chainId": "0xaa044c"
      },
      "additionalContracts": [],
      "isFixedGasLimit": false
    },
    {
      "hash": null,
      "transactionType": "CALL",
      "contractName": "NastarEscrow",
      "contractAddress": "0x0646f1f73dafab7ca1149ec781352e8b106f30a4",
      "function": "createDeal(uint256,uint256,uint256,address,uint256,string,uint256,bool)",
      "arguments": [
        "1",
        "4",
        "1",
        "0x67D0C491bfd98DA9a6Ee6f114Fed78db06574DA2",
        "1000000000000000000",
        "Translate whitepaper to Portuguese",
        "1774152146",
        "false"
      ],
      "transaction": {
        "from": "0x1eb33c5149a6c59b766b9f0d6da410af0269f4e4",
        "to": "0x0646f1f73dafab7ca1149ec781352e8b106f30a4",
        "gas": "0x9b71f",
        "value": "0x0",
        "input": "0x6318aef100000000000000000000000000000000000000000000000000000000000000010000000000000000000000000000000000000000000000000000000000000004000000000000000000000000000000000000000000000000000000000000000100000000000000000000000067d0c491bfd98da9a6ee6f114fed78db06574da20000000000000000000000000000000000000000000000000de0b6b3a764000000000000000000000000000000000000000000000000000000000000000001000000000000000000000000000000000000000000000000000000000069bf69d2000000000000000000000000000000000000000000000000000000000000000000000000000000000000000000000000000000000000000000000000000000225472616e736c617465207768697465706170657220746f20506f7274756775657365000000000000000000000000000000000000000000000000000000000000",
        "nonce": "0x2",
        "chainId": "0xaa044c"
      },
      "additionalContracts": [],
      "isFixedGasLimit": false
    },
    {
      "hash": null,
      "transactionType": "CALL",
      "contractName": "NastarEscrow",
      "contractAddress": "0x0646f1f73dafab7ca1149ec781352e8b106f30a4",
      "function": "createDeal(uint256,uint256,uint256,address,uint256,string,uint256,bool)",
      "arguments": [
        "2",
        "4",
        "2",
        "0x67D0C491bfd98DA9a6Ee6f114Fed78db06574DA2",
        "5000000000000000000",
        "Review NastarEscrow.sol for security issues",
        "1774152146",
        "false"
      ],
      "transaction": {
        "from": "0x1eb33c5149a6c59b766b9f0d6da410af0269f4e4",
        "to": "0x0646f1f73dafab7ca1149ec781352e8b106f30a4",
        "gas": "0x92d88",
        "value": "0x0",
        "input": "0x6318aef100000000000000000000000000000000000000000000000000000000000000020000000000000000000000000000000000000000000000000000000000000004000000000000000000000000000000000000000000000000000000000000000200000000000000000000000067d0c491bfd98da9a6ee6f114fed78db06574da20000000000000000000000000000000000000000000000004563918244f4000000000000000000000000000000000000000000000000000000000000000001000000000000000000000000000000000000000000000000000000000069bf69d20000000000000000000000000000000000000000000000000000000000000000000000000000000000000000000000000000000000000000000000000000002b526576696577204e6173746172457363726f772e736f6c20666f7220736563757269747920697373756573000000000000000000000000000000000000000000",
        "nonce": "0x3",
        "chainId": "0xaa044c"
      },
      "additionalContracts": [],
      "isFixedGasLimit": false
    },
    {
      "hash": null,
      "transactionType": "CALL",
      "contractName": "NastarEscrow",
      "contractAddress": "0x0646f1f73dafab7ca1149ec781352e8b106f30a4",
      "function": "createDeal(uint256,uint256,uint256,address,uint256,string,uint256,bool)",
      "arguments": [
        "3",
        "4",
        "3",
        "0x67D0C491bfd98DA9a6Ee6f114Fed78db06574DA2",
        "3000000000000000000",
        "Analyze top 100 Celo wallets DeFi exposure",
        "1774152146",
        "false"
      ],
      "transaction": {
        "from": "0x1eb33c5149a6c59b766b9f0d6da410af0269f4e4",
        "to": "0x0646f1f73dafab7ca1149ec781352e8b106f30a4",
        "gas": "0x9b7ac",
        "value": "0x0",
        "input": "0x6318aef100000000000000000000000000000000000000000000000000000000000000030000000000000000000000000000000000000000000000000000000000000004000000000000000000000000000000000000000000000000000000000000000300000000000000000000000067d0c491bfd98da9a6ee6f114fed78db06574da200000000000000000000000000000000000000000000000029a2241af62c000000000000000000000000000000000000000000000000000000000000000001000000000000000000000000000000000000000000000000000000000069bf69d20000000000000000000000000000000000000000000000000000000000000000000000000000000000000000000000000000000000000000000000000000002a416e616c797a6520746f70203130302043656c6f2077616c6c6574732044654669206578706f7375726500000000000000000000000000000000000000000000",
        "nonce": "0x4",
        "chainId": "0xaa044c"
      },
      "additionalContracts": [],
      "isFixedGasLimit": false
    },
    {
      "hash": null,
      "transactionType": "CALL",
      "contractName": "NastarEscrow",
      "contractAddress": "0x0646f1f73dafab7ca1149ec781352e8b106f30a4",
      "function": "createDeal(uint256,uint256,uint256,address,uint256,string,uint256,bool)",
      "arguments": [
        "0",
        "4",
        "0",
        "0x67D0C491bfd98DA9a6Ee6f114Fed78db06574DA2",
        "2000000000000000000",
        "Compare Mento vs Uniswap liquidity models",
        "1774152146",
        "false"
      ],
      "transaction": {
        "from": "0x1eb33c5149a6c59b766b9f0d6da410af0269f4e4",
        "to": "0x0646f1f73dafab7ca1149ec781352e8b106f30a4",
        "gas": "0x87267",
        "value": "0x0",
        "input": "0x6318aef100000000000000000000000000000000000000000000000000000000000000000000000000000000000000000000000000000000000000000000000000000004000000000000000000000000000000000000000000000000000000000000000000000000000000000000000067d0c491bfd98da9a6ee6f114fed78db06574da20000000000000000000000000000000000000000000000001bc16d674ec8000000000000000000000000000000000000000000000000000000000000000001000000000000000000000000000000000000000000000000000000000069bf69d200000000000000000000000000000000000000000000000000000000000000000000000000000000000000000000000000000000000000000000000000000029436f6d70617265204d656e746f20767320556e6973776170206c6971756964697479206d6f64656c730000000000000000000000000000000000000000000000",
        "nonce": "0x5",
        "chainId": "0xaa044c"
      },
      "additionalContracts": [],
      "isFixedGasLimit": false
    },
    {
      "hash": null,
      "transactionType": "CALL",
      "contractName": "NastarEscrow",
      "contractAddress": "0x0646f1f73dafab7ca1149ec781352e8b106f30a4",
      "function": "createDeal(uint256,uint256,uint256,address,uint256,string,uint256,bool)",
      "arguments": [
        "1",
        "4",
        "1",
        "0x67D0C491bfd98DA9a6Ee6f114Fed78db06574DA2",
        "1000000000000000000",
        "Translate pitch deck to Spanish",
        "1774152146",
        "false"
      ],
      "transaction": {
        "from": "0x1eb33c5149a6c59b766b9f0d6da410af0269f4e4",
        "to": "0x0646f1f73dafab7ca1149ec781352e8b106f30a4",
        "gas": "0x7e021",
        "value": "0x0",
        "input": "0x6318aef100000000000000000000000000000000000000000000000000000000000000010000000000000000000000000000000000000000000000000000000000000004000000000000000000000000000000000000000000000000000000000000000100000000000000000000000067d0c491bfd98da9a6ee6f114fed78db06574da20000000000000000000000000000000000000000000000000de0b6b3a764000000000000000000000000000000000000000000000000000000000000000001000000000000000000000000000000000000000000000000000000000069bf69d20000000000000000000000000000000000000000000000000000000000000000000000000000000000000000000000000000000000000000000000000000001f5472616e736c617465207069746368206465636b20746f205370616e69736800",
        "nonce": "0x6",
        "chainId": "0xaa044c"
      },
      "additionalContracts": [],
      "isFixedGasLimit": false
    },
    {
      "hash": null,
      "transactionType": "CALL",
      "contractName": "NastarEscrow",
      "contractAddress": "0x0646f1f73dafab7ca1149ec781352e8b106f30a4",
      "function": "createDeal(uint256,uint256,uint256,address,uint256,string,uint256,bool)",
      "arguments": [
        "3",
        "4",
        "3",
        "0x67D0C491bfd98DA9a6Ee6f114Fed78db06574DA2",
        "3000000000000000000",
        "Track MEV activity on Celo last 30 days",
        "1774152146",
        "false"
      ],
      "transaction": {
        "from": "0x1eb33c5149a6c59b766b9f0d6da410af0269f4e4",
        "to": "0x0646f1f73dafab7ca1149ec781352e8b106f30a4",
        "gas": "0x955c6",
        "value": "0x0",
        "input": "0x6318aef100000000000000000000000000000000000000000000000000000000000000030000000000000000000000000000000000000000000000000000000000000004000000000000000000000000000000000000000000000000000000000000000300000000000000000000000067d0c491bfd98da9a6ee6f114fed78db06574da200000000000000000000000000000000000000000000000029a2241af62c000000000000000000000000000000000000000000000000000000000000000001000000000000000000000000000000000000000000000000000000000069bf69d200000000000000000000000000000000000000000000000000000000000000000000000000000000000000000000000000000000000000000000000000000027547261636b204d4556206163746976697479206f6e2043656c6f206c617374203330206461797300000000000000000000000000000000000000000000000000",
        "nonce": "0x7",
        "chainId": "0xaa044c"
      },
      "additionalContracts": [],
      "isFixedGasLimit": false
    },
    {
      "hash": null,
      "transactionType": "CALL",
      "contractName": "NastarEscrow",
      "contractAddress": "0x0646f1f73dafab7ca1149ec781352e8b106f30a4",
      "function": "createDeal(uint256,uint256,uint256,address,uint256,string,uint256,bool)",
      "arguments": [
        "2",
        "4",
        "2",
        "0x67D0C491bfd98DA9a6Ee6f114Fed78db06574DA2",
        "5000000000000000000",
        "Audit frontend wallet connection flow",
        "1774152146",
        "false"
      ],
      "transaction": {
        "from": "0x1eb33c5149a6c59b766b9f0d6da410af0269f4e4",
        "to": "0x0646f1f73dafab7ca1149ec781352e8b106f30a4",
        "gas": "0x955a3",
        "value": "0x0",
        "input": "0x6318aef100000000000000000000000000000000000000000000000000000000000000020000000000000000000000000000000000000000000000000000000000000004000000000000000000000000000000000000000000000000000000000000000200000000000000000000000067d0c491bfd98da9a6ee6f114fed78db06574da20000000000000000000000000000000000000000000000004563918244f4000000000000000000000000000000000000000000000000000000000000000001000000000000000000000000000000000000000000000000000000000069bf69d20000000000000000000000000000000000000000000000000000000000000000000000000000000000000000000000000000000000000000000000000000002541756469742066726f6e74656e642077616c6c657420636f6e6e656374696f6e20666c6f77000000000000000000000000000000000000000000000000000000",
        "nonce": "0x8",
        "chainId": "0xaa044c"
      },
      "additionalContracts": [],
      "isFixedGasLimit": false
    },
    {
      "hash": null,
      "transactionType": "CALL",
      "contractName": "NastarEscrow",
      "contractAddress": "0x0646f1f73dafab7ca1149ec781352e8b106f30a4",
      "function": "createDeal(uint256,uint256,uint256,address,uint256,string,uint256,bool)",
      "arguments": [
        "0",
        "4",
        "0",
        "0x67D0C491bfd98DA9a6Ee6f114Fed78db06574DA2",
        "2000000000000000000",
        "Map all Celo DeFi protocols by TVL",
        "1774152146",
        "true"
      ],
      "transaction": {
        "from": "0x1eb33c5149a6c59b766b9f0d6da410af0269f4e4",
        "to": "0x0646f1f73dafab7ca1149ec781352e8b106f30a4",
        "gas": "0x86540",
        "value": "0x0",
        "input": "0x6318aef100000000000000000000000000000000000000000000000000000000000000000000000000000000000000000000000000000000000000000000000000000004000000000000000000000000000000000000000000000000000000000000000000000000000000000000000067d0c491bfd98da9a6ee6f114fed78db06574da20000000000000000000000000000000000000000000000001bc16d674ec8000000000000000000000000000000000000000000000000000000000000000001000000000000000000000000000000000000000000000000000000000069bf69d2000000000000000000000000000000000000000000000000000000000000000100000000000000000000000000000000000000000000000000000000000000224d617020616c6c2043656c6f20446546692070726f746f636f6c732062792054564c000000000000000000000000000000000000000000000000000000000000",
        "nonce": "0x9",
        "chainId": "0xaa044c"
      },
      "additionalContracts": [],
      "isFixedGasLimit": false
    },
    {
      "hash": null,
      "transactionType": "CALL",
      "contractName": "NastarEscrow",
      "contractAddress": "0x0646f1f73dafab7ca1149ec781352e8b106f30a4",
      "function": "createDeal(uint256,uint256,uint256,address,uint256,string,uint256,bool)",
      "arguments": [
        "1",
        "4",
        "1",
        "0x67D0C491bfd98DA9a6Ee6f114Fed78db06574DA2",
        "1000000000000000000",
        "Translate legal contract to French",
        "1774152146",
        "false"
      ],
      "transaction": {
        "from": "0x1eb33c5149a6c59b766b9f0d6da410af0269f4e4",
        "to": "0x0646f1f73dafab7ca1149ec781352e8b106f30a4",
        "gas": "0x8d0ae",
        "value": "0x0",
        "input": "0x6318aef100000000000000000000000000000000000000000000000000000000000000010000000000000000000000000000000000000000000000000000000000000004000000000000000000000000000000000000000000000000000000000000000100000000000000000000000067d0c491bfd98da9a6ee6f114fed78db06574da20000000000000000000000000000000000000000000000000de0b6b3a764000000000000000000000000000000000000000000000000000000000000000001000000000000000000000000000000000000000000000000000000000069bf69d2000000000000000000000000000000000000000000000000000000000000000000000000000000000000000000000000000000000000000000000000000000225472616e736c617465206c6567616c20636f6e747261637420746f204672656e6368000000000000000000000000000000000000000000000000000000000000",
        "nonce": "0xa",
        "chainId": "0xaa044c"
      },
      "additionalContracts": [],
      "isFixedGasLimit": false
    },
    {
      "hash": null,
      "transactionType": "CALL",
      "contractName": "NastarEscrow",
      "contractAddress": "0x0646f1f73dafab7ca1149ec781352e8b106f30a4",
      "function": "createDeal(uint256,uint256,uint256,address,uint256,string,uint256,bool)",
      "arguments": [
        "3",
        "4",
        "3",
        "0x67D0C491bfd98DA9a6Ee6f114Fed78db06574DA2",
        "3000000000000000000",
        "Build wallet scoring model for Celo addresses",
        "1774152146",
        "false"
      ],
      "transaction": {
        "from": "0x1eb33c5149a6c59b766b9f0d6da410af0269f4e4",
        "to": "0x0646f1f73dafab7ca1149ec781352e8b106f30a4",
        "gas": "0x9562f",
        "value": "0x0",
        "input": "0x6318aef100000000000000000000000000000000000000000000000000000000000000030000000000000000000000000000000000000000000000000000000000000004000000000000000000000000000000000000000000000000000000000000000300000000000000000000000067d0c491bfd98da9a6ee6f114fed78db06574da200000000000000000000000000000000000000000000000029a2241af62c000000000000000000000000000000000000000000000000000000000000000001000000000000000000000000000000000000000000000000000000000069bf69d20000000000000000000000000000000000000000000000000000000000000000000000000000000000000000000000000000000000000000000000000000002d4275696c642077616c6c65742073636f72696e67206d6f64656c20666f722043656c6f2061646472657373657300000000000000000000000000000000000000",
        "nonce": "0xb",
        "chainId": "0xaa044c"
      },
      "additionalContracts": [],
      "isFixedGasLimit": false
    },
    {
      "hash": null,
      "transactionType": "CALL",
      "contractName": "NastarEscrow",
      "contractAddress": "0x0646f1f73dafab7ca1149ec781352e8b106f30a4",
      "function": "createDeal(uint256,uint256,uint256,address,uint256,string,uint256,bool)",
      "arguments": [
        "2",
        "4",
        "2",
        "0x67D0C491bfd98DA9a6Ee6f114Fed78db06574DA2",
        "5000000000000000000",
        "Review smart contract upgrade pattern",
        "1774152146",
        "false"
      ],
      "transaction": {
        "from": "0x1eb33c5149a6c59b766b9f0d6da410af0269f4e4",
        "to": "0x0646f1f73dafab7ca1149ec781352e8b106f30a4",
        "gas": "0x955a3",
        "value": "0x0",
        "input": "0x6318aef100000000000000000000000000000000000000000000000000000000000000020000000000000000000000000000000000000000000000000000000000000004000000000000000000000000000000000000000000000000000000000000000200000000000000000000000067d0c491bfd98da9a6ee6f114fed78db06574da20000000000000000000000000000000000000000000000004563918244f4000000000000000000000000000000000000000000000000000000000000000001000000000000000000000000000000000000000000000000000000000069bf69d20000000000000000000000000000000000000000000000000000000000000000000000000000000000000000000000000000000000000000000000000000002552657669657720736d61727420636f6e74726163742075706772616465207061747465726e000000000000000000000000000000000000000000000000000000",
        "nonce": "0xc",
        "chainId": "0xaa044c"
      },
      "additionalContracts": [],
      "isFixedGasLimit": false
    },
    {
      "hash": null,
      "transactionType": "CALL",
      "contractName": "NastarEscrow",
      "contractAddress": "0x0646f1f73dafab7ca1149ec781352e8b106f30a4",
      "function": "acceptDeal(uint256)",
      "arguments": [
        "0"
      ],
      "transaction": {
        "from": "0xa5844eef46b34894898b7050cef5f4d225e92fbe",
        "to": "0x0646f1f73dafab7ca1149ec781352e8b106f30a4",
        "gas": "0x127e4",
        "value": "0x0",
        "input": "0x7d41702e0000000000000000000000000000000000000000000000000000000000000000",
        "nonce": "0x54",
        "chainId": "0xaa044c"
      },
      "additionalContracts": [],
      "isFixedGasLimit": false
    },
    {
      "hash": null,
      "transactionType": "CALL",
      "contractName": "NastarEscrow",
      "contractAddress": "0x0646f1f73dafab7ca1149ec781352e8b106f30a4",
      "function": "acceptDeal(uint256)",
      "arguments": [
        "1"
      ],
      "transaction": {
        "from": "0xa5844eef46b34894898b7050cef5f4d225e92fbe",
        "to": "0x0646f1f73dafab7ca1149ec781352e8b106f30a4",
        "gas": "0x11783",
        "value": "0x0",
        "input": "0x7d41702e0000000000000000000000000000000000000000000000000000000000000001",
        "nonce": "0x55",
        "chainId": "0xaa044c"
      },
      "additionalContracts": [],
      "isFixedGasLimit": false
    },
    {
      "hash": null,
      "transactionType": "CALL",
      "contractName": "NastarEscrow",
      "contractAddress": "0x0646f1f73dafab7ca1149ec781352e8b106f30a4",
      "function": "acceptDeal(uint256)",
      "arguments": [
        "2"
      ],
      "transaction": {
        "from": "0xa5844eef46b34894898b7050cef5f4d225e92fbe",
        "to": "0x0646f1f73dafab7ca1149ec781352e8b106f30a4",
        "gas": "0x11783",
        "value": "0x0",
        "input": "0x7d41702e0000000000000000000000000000000000000000000000000000000000000002",
        "nonce": "0x56",
        "chainId": "0xaa044c"
      },
      "additionalContracts": [],
      "isFixedGasLimit": false
    },
    {
      "hash": null,
      "transactionType": "CALL",
      "contractName": "NastarEscrow",
      "contractAddress": "0x0646f1f73dafab7ca1149ec781352e8b106f30a4",
      "function": "acceptDeal(uint256)",
      "arguments": [
        "3"
      ],
      "transaction": {
        "from": "0xa5844eef46b34894898b7050cef5f4d225e92fbe",
        "to": "0x0646f1f73dafab7ca1149ec781352e8b106f30a4",
        "gas": "0x11783",
        "value": "0x0",
        "input": "0x7d41702e0000000000000000000000000000000000000000000000000000000000000003",
        "nonce": "0x57",
        "chainId": "0xaa044c"
      },
      "additionalContracts": [],
      "isFixedGasLimit": false
    },
    {
      "hash": null,
      "transactionType": "CALL",
      "contractName": "NastarEscrow",
      "contractAddress": "0x0646f1f73dafab7ca1149ec781352e8b106f30a4",
      "function": "acceptDeal(uint256)",
      "arguments": [
        "4"
      ],
      "transaction": {
        "from": "0xa5844eef46b34894898b7050cef5f4d225e92fbe",
        "to": "0x0646f1f73dafab7ca1149ec781352e8b106f30a4",
        "gas": "0x11783",
        "value": "0x0",
        "input": "0x7d41702e0000000000000000000000000000000000000000000000000000000000000004",
        "nonce": "0x58",
        "chainId": "0xaa044c"
      },
      "additionalContracts": [],
      "isFixedGasLimit": false
    },
    {
      "hash": null,
      "transactionType": "CALL",
      "contractName": "NastarEscrow",
      "contractAddress": "0x0646f1f73dafab7ca1149ec781352e8b106f30a4",
      "function": "acceptDeal(uint256)",
      "arguments": [
        "5"
      ],
      "transaction": {
        "from": "0xa5844eef46b34894898b7050cef5f4d225e92fbe",
        "to": "0x0646f1f73dafab7ca1149ec781352e8b106f30a4",
        "gas": "0x11783",
        "value": "0x0",
        "input": "0x7d41702e0000000000000000000000000000000000000000000000000000000000000005",
        "nonce": "0x59",
        "chainId": "0xaa044c"
      },
      "additionalContracts": [],
      "isFixedGasLimit": false
    },
    {
      "hash": null,
      "transactionType": "CALL",
      "contractName": "NastarEscrow",
      "contractAddress": "0x0646f1f73dafab7ca1149ec781352e8b106f30a4",
      "function": "acceptDeal(uint256)",
      "arguments": [
        "6"
      ],
      "transaction": {
        "from": "0xa5844eef46b34894898b7050cef5f4d225e92fbe",
        "to": "0x0646f1f73dafab7ca1149ec781352e8b106f30a4",
        "gas": "0x11783",
        "value": "0x0",
        "input": "0x7d41702e0000000000000000000000000000000000000000000000000000000000000006",
        "nonce": "0x5a",
        "chainId": "0xaa044c"
      },
      "additionalContracts": [],
      "isFixedGasLimit": false
    },
    {
      "hash": null,
      "transactionType": "CALL",
      "contractName": "NastarEscrow",
      "contractAddress": "0x0646f1f73dafab7ca1149ec781352e8b106f30a4",
      "function": "acceptDeal(uint256)",
      "arguments": [
        "7"
      ],
      "transaction": {
        "from": "0xa5844eef46b34894898b7050cef5f4d225e92fbe",
        "to": "0x0646f1f73dafab7ca1149ec781352e8b106f30a4",
        "gas": "0x11783",
        "value": "0x0",
        "input": "0x7d41702e0000000000000000000000000000000000000000000000000000000000000007",
        "nonce": "0x5b",
        "chainId": "0xaa044c"
      },
      "additionalContracts": [],
      "isFixedGasLimit": false
    },
    {
      "hash": null,
      "transactionType": "CALL",
      "contractName": "NastarEscrow",
      "contractAddress": "0x0646f1f73dafab7ca1149ec781352e8b106f30a4",
      "function": "acceptDeal(uint256)",
      "arguments": [
        "8"
      ],
      "transaction": {
        "from": "0xa5844eef46b34894898b7050cef5f4d225e92fbe",
        "to": "0x0646f1f73dafab7ca1149ec781352e8b106f30a4",
        "gas": "0x11783",
        "value": "0x0",
        "input": "0x7d41702e0000000000000000000000000000000000000000000000000000000000000008",
        "nonce": "0x5c",
        "chainId": "0xaa044c"
      },
      "additionalContracts": [],
      "isFixedGasLimit": false
    },
    {
      "hash": null,
      "transactionType": "CALL",
      "contractName": "NastarEscrow",
      "contractAddress": "0x0646f1f73dafab7ca1149ec781352e8b106f30a4",
      "function": "acceptDeal(uint256)",
      "arguments": [
        "9"
      ],
      "transaction": {
        "from": "0xa5844eef46b34894898b7050cef5f4d225e92fbe",
        "to": "0x0646f1f73dafab7ca1149ec781352e8b106f30a4",
        "gas": "0x11783",
        "value": "0x0",
        "input": "0x7d41702e0000000000000000000000000000000000000000000000000000000000000009",
        "nonce": "0x5d",
        "chainId": "0xaa044c"
      },
      "additionalContracts": [],
      "isFixedGasLimit": false
    },
    {
      "hash": null,
      "transactionType": "CALL",
      "contractName": "NastarEscrow",
      "contractAddress": "0x0646f1f73dafab7ca1149ec781352e8b106f30a4",
      "function": "acceptDeal(uint256)",
      "arguments": [
        "10"
      ],
      "transaction": {
        "from": "0xa5844eef46b34894898b7050cef5f4d225e92fbe",
        "to": "0x0646f1f73dafab7ca1149ec781352e8b106f30a4",
        "gas": "0x11783",
        "value": "0x0",
        "input": "0x7d41702e000000000000000000000000000000000000000000000000000000000000000a",
        "nonce": "0x5e",
        "chainId": "0xaa044c"
      },
      "additionalContracts": [],
      "isFixedGasLimit": false
    },
    {
      "hash": null,
      "transactionType": "CALL",
      "contractName": "NastarEscrow",
      "contractAddress": "0x0646f1f73dafab7ca1149ec781352e8b106f30a4",
      "function": "acceptDeal(uint256)",
      "arguments": [
        "11"
      ],
      "transaction": {
        "from": "0xa5844eef46b34894898b7050cef5f4d225e92fbe",
        "to": "0x0646f1f73dafab7ca1149ec781352e8b106f30a4",
        "gas": "0x11783",
        "value": "0x0",
        "input": "0x7d41702e000000000000000000000000000000000000000000000000000000000000000b",
        "nonce": "0x5f",
        "chainId": "0xaa044c"
      },
      "additionalContracts": [],
      "isFixedGasLimit": false
    },
    {
      "hash": null,
      "transactionType": "CALL",
      "contractName": "NastarEscrow",
      "contractAddress": "0x0646f1f73dafab7ca1149ec781352e8b106f30a4",
      "function": "deliverDeal(uint256,string)",
      "arguments": [
        "0",
        "ipfs://QmResearch1Result"
      ],
      "transaction": {
        "from": "0xa5844eef46b34894898b7050cef5f4d225e92fbe",
        "to": "0x0646f1f73dafab7ca1149ec781352e8b106f30a4",
        "gas": "0x15de8",
        "value": "0x0",
        "input": "0xd2114e0c000000000000000000000000000000000000000000000000000000000000000000000000000000000000000000000000000000000000000000000000000000400000000000000000000000000000000000000000000000000000000000000018697066733a2f2f516d526573656172636831526573756c740000000000000000",
        "nonce": "0x60",
        "chainId": "0xaa044c"
      },
      "additionalContracts": [],
      "isFixedGasLimit": false
    },
    {
      "hash": null,
      "transactionType": "CALL",
      "contractName": "NastarEscrow",
      "contractAddress": "0x0646f1f73dafab7ca1149ec781352e8b106f30a4",
      "function": "deliverDeal(uint256,string)",
      "arguments": [
        "1",
        "ipfs://QmTranslate1Result"
      ],
      "transaction": {
        "from": "0xa5844eef46b34894898b7050cef5f4d225e92fbe",
        "to": "0x0646f1f73dafab7ca1149ec781352e8b106f30a4",
        "gas": "0x15e0b",
        "value": "0x0",
        "input": "0xd2114e0c000000000000000000000000000000000000000000000000000000000000000100000000000000000000000000000000000000000000000000000000000000400000000000000000000000000000000000000000000000000000000000000019697066733a2f2f516d5472616e736c61746531526573756c7400000000000000",
        "nonce": "0x61",
        "chainId": "0xaa044c"
      },
      "additionalContracts": [],
      "isFixedGasLimit": false
    },
    {
      "hash": null,
      "transactionType": "CALL",
      "contractName": "NastarEscrow",
      "contractAddress": "0x0646f1f73dafab7ca1149ec781352e8b106f30a4",
      "function": "deliverDeal(uint256,string)",
      "arguments": [
        "2",
        "ipfs://QmCodeReview1Result"
      ],
      "transaction": {
        "from": "0xa5844eef46b34894898b7050cef5f4d225e92fbe",
        "to": "0x0646f1f73dafab7ca1149ec781352e8b106f30a4",
        "gas": "0x14aa9",
        "value": "0x0",
        "input": "0xd2114e0c00000000000000000000000000000000000000000000000000000000000000020000000000000000000000000000000000000000000000000000000000000040000000000000000000000000000000000000000000000000000000000000001a697066733a2f2f516d436f646552657669657731526573756c74000000000000",
        "nonce": "0x62",
        "chainId": "0xaa044c"
      },
      "additionalContracts": [],
      "isFixedGasLimit": false
    },
    {
      "hash": null,
      "transactionType": "CALL",
      "contractName": "NastarEscrow",
      "contractAddress": "0x0646f1f73dafab7ca1149ec781352e8b106f30a4",
      "function": "deliverDeal(uint256,string)",
      "arguments": [
        "3",
        "ipfs://QmData1Result"
      ],
      "transaction": {
        "from": "0xa5844eef46b34894898b7050cef5f4d225e92fbe",
        "to": "0x0646f1f73dafab7ca1149ec781352e8b106f30a4",
        "gas": "0x14a45",
        "value": "0x0",
        "input": "0xd2114e0c000000000000000000000000000000000000000000000000000000000000000300000000000000000000000000000000000000000000000000000000000000400000000000000000000000000000000000000000000000000000000000000014697066733a2f2f516d4461746131526573756c74000000000000000000000000",
        "nonce": "0x63",
        "chainId": "0xaa044c"
      },
      "additionalContracts": [],
      "isFixedGasLimit": false
    },
    {
      "hash": null,
      "transactionType": "CALL",
      "contractName": "NastarEscrow",
      "contractAddress": "0x0646f1f73dafab7ca1149ec781352e8b106f30a4",
      "function": "deliverDeal(uint256,string)",
      "arguments": [
        "4",
        "ipfs://QmResearch2Result"
      ],
      "transaction": {
        "from": "0xa5844eef46b34894898b7050cef5f4d225e92fbe",
        "to": "0x0646f1f73dafab7ca1149ec781352e8b106f30a4",
        "gas": "0x14a87",
        "value": "0x0",
        "input": "0xd2114e0c000000000000000000000000000000000000000000000000000000000000000400000000000000000000000000000000000000000000000000000000000000400000000000000000000000000000000000000000000000000000000000000018697066733a2f2f516d526573656172636832526573756c740000000000000000",
        "nonce": "0x64",
        "chainId": "0xaa044c"
      },
      "additionalContracts": [],
      "isFixedGasLimit": false
    },
    {
      "hash": null,
      "transactionType": "CALL",
      "contractName": "NastarEscrow",
      "contractAddress": "0x0646f1f73dafab7ca1149ec781352e8b106f30a4",
      "function": "deliverDeal(uint256,string)",
      "arguments": [
        "5",
        "ipfs://QmTranslate2Result"
      ],
      "transaction": {
        "from": "0xa5844eef46b34894898b7050cef5f4d225e92fbe",
        "to": "0x0646f1f73dafab7ca1149ec781352e8b106f30a4",
        "gas": "0x15e0b",
        "value": "0x0",
        "input": "0xd2114e0c000000000000000000000000000000000000000000000000000000000000000500000000000000000000000000000000000000000000000000000000000000400000000000000000000000000000000000000000000000000000000000000019697066733a2f2f516d5472616e736c61746532526573756c7400000000000000",
        "nonce": "0x65",
        "chainId": "0xaa044c"
      },
      "additionalContracts": [],
      "isFixedGasLimit": false
    },
    {
      "hash": null,
      "transactionType": "CALL",
      "contractName": "NastarEscrow",
      "contractAddress": "0x0646f1f73dafab7ca1149ec781352e8b106f30a4",
      "function": "deliverDeal(uint256,string)",
      "arguments": [
        "6",
        "ipfs://QmData2Result"
      ],
      "transaction": {
        "from": "0xa5844eef46b34894898b7050cef5f4d225e92fbe",
        "to": "0x0646f1f73dafab7ca1149ec781352e8b106f30a4",
        "gas": "0x14a45",
        "value": "0x0",
        "input": "0xd2114e0c000000000000000000000000000000000000000000000000000000000000000600000000000000000000000000000000000000000000000000000000000000400000000000000000000000000000000000000000000000000000000000000014697066733a2f2f516d4461746132526573756c74000000000000000000000000",
        "nonce": "0x66",
        "chainId": "0xaa044c"
      },
      "additionalContracts": [],
      "isFixedGasLimit": false
    },
    {
      "hash": null,
      "transactionType": "CALL",
      "contractName": "NastarEscrow",
      "contractAddress": "0x0646f1f73dafab7ca1149ec781352e8b106f30a4",
      "function": "deliverDeal(uint256,string)",
      "arguments": [
        "7",
        "ipfs://QmCode2Result"
      ],
      "transaction": {
        "from": "0xa5844eef46b34894898b7050cef5f4d225e92fbe",
        "to": "0x0646f1f73dafab7ca1149ec781352e8b106f30a4",
        "gas": "0x14a45",
        "value": "0x0",
        "input": "0xd2114e0c000000000000000000000000000000000000000000000000000000000000000700000000000000000000000000000000000000000000000000000000000000400000000000000000000000000000000000000000000000000000000000000014697066733a2f2f516d436f646532526573756c74000000000000000000000000",
        "nonce": "0x67",
        "chainId": "0xaa044c"
      },
      "additionalContracts": [],
      "isFixedGasLimit": false
    },
    {
      "hash": null,
      "transactionType": "CALL",
      "contractName": "NastarEscrow",
      "contractAddress": "0x0646f1f73dafab7ca1149ec781352e8b106f30a4",
      "function": "deliverDeal(uint256,string)",
      "arguments": [
        "8",
        "ipfs://QmResearch3Auto"
      ],
      "transaction": {
        "from": "0xa5844eef46b34894898b7050cef5f4d225e92fbe",
        "to": "0x0646f1f73dafab7ca1149ec781352e8b106f30a4",
        "gas": "0x2a31b",
        "value": "0x0",
        "input": "0xd2114e0c000000000000000000000000000000000000000000000000000000000000000800000000000000000000000000000000000000000000000000000000000000400000000000000000000000000000000000000000000000000000000000000016697066733a2f2f516d5265736561726368334175746f00000000000000000000",
        "nonce": "0x68",
        "chainId": "0xaa044c"
      },
      "additionalContracts": [],
      "isFixedGasLimit": false
    },
    {
      "hash": null,
      "transactionType": "CALL",
      "contractName": "NastarEscrow",
      "contractAddress": "0x0646f1f73dafab7ca1149ec781352e8b106f30a4",
      "function": "deliverDeal(uint256,string)",
      "arguments": [
        "9",
        "ipfs://QmTranslate3Partial"
      ],
      "transaction": {
        "from": "0xa5844eef46b34894898b7050cef5f4d225e92fbe",
        "to": "0x0646f1f73dafab7ca1149ec781352e8b106f30a4",
        "gas": "0x14aa9",
        "value": "0x0",
        "input": "0xd2114e0c00000000000000000000000000000000000000000000000000000000000000090000000000000000000000000000000000000000000000000000000000000040000000000000000000000000000000000000000000000000000000000000001a697066733a2f2f516d5472616e736c617465335061727469616c000000000000",
        "nonce": "0x69",
        "chainId": "0xaa044c"
      },
      "additionalContracts": [],
      "isFixedGasLimit": false
    },
    {
      "hash": null,
      "transactionType": "CALL",
      "contractName": "NastarEscrow",
      "contractAddress": "0x0646f1f73dafab7ca1149ec781352e8b106f30a4",
      "function": "confirmDelivery(uint256)",
      "arguments": [
        "0"
      ],
      "transaction": {
        "from": "0x1eb33c5149a6c59b766b9f0d6da410af0269f4e4",
        "to": "0x0646f1f73dafab7ca1149ec781352e8b106f30a4",
        "gas": "0x1cbbc",
        "value": "0x0",
        "input": "0xfd84cb970000000000000000000000000000000000000000000000000000000000000000",
        "nonce": "0xd",
        "chainId": "0xaa044c"
      },
      "additionalContracts": [],
      "isFixedGasLimit": false
    },
    {
      "hash": null,
      "transactionType": "CALL",
      "contractName": "NastarEscrow",
      "contractAddress": "0x0646f1f73dafab7ca1149ec781352e8b106f30a4",
      "function": "confirmDelivery(uint256)",
      "arguments": [
        "1"
      ],
      "transaction": {
        "from": "0x1eb33c5149a6c59b766b9f0d6da410af0269f4e4",
        "to": "0x0646f1f73dafab7ca1149ec781352e8b106f30a4",
        "gas": "0x1b242",
        "value": "0x0",
        "input": "0xfd84cb970000000000000000000000000000000000000000000000000000000000000001",
        "nonce": "0xe",
        "chainId": "0xaa044c"
      },
      "additionalContracts": [],
      "isFixedGasLimit": false
    },
    {
      "hash": null,
      "transactionType": "CALL",
      "contractName": "NastarEscrow",
      "contractAddress": "0x0646f1f73dafab7ca1149ec781352e8b106f30a4",
      "function": "confirmDelivery(uint256)",
      "arguments": [
        "2"
      ],
      "transaction": {
        "from": "0x1eb33c5149a6c59b766b9f0d6da410af0269f4e4",
        "to": "0x0646f1f73dafab7ca1149ec781352e8b106f30a4",
        "gas": "0x1b242",
        "value": "0x0",
        "input": "0xfd84cb970000000000000000000000000000000000000000000000000000000000000002",
        "nonce": "0xf",
        "chainId": "0xaa044c"
      },
      "additionalContracts": [],
      "isFixedGasLimit": false
    },
    {
      "hash": null,
      "transactionType": "CALL",
      "contractName": "NastarEscrow",
      "contractAddress": "0x0646f1f73dafab7ca1149ec781352e8b106f30a4",
      "function": "confirmDelivery(uint256)",
      "arguments": [
        "3"
      ],
      "transaction": {
        "from": "0x1eb33c5149a6c59b766b9f0d6da410af0269f4e4",
        "to": "0x0646f1f73dafab7ca1149ec781352e8b106f30a4",
        "gas": "0x1b242",
        "value": "0x0",
        "input": "0xfd84cb970000000000000000000000000000000000000000000000000000000000000003",
        "nonce": "0x10",
        "chainId": "0xaa044c"
      },
      "additionalContracts": [],
      "isFixedGasLimit": false
    },
    {
      "hash": null,
      "transactionType": "CALL",
      "contractName": "NastarEscrow",
      "contractAddress": "0x0646f1f73dafab7ca1149ec781352e8b106f30a4",
      "function": "confirmDelivery(uint256)",
      "arguments": [
        "4"
      ],
      "transaction": {
        "from": "0x1eb33c5149a6c59b766b9f0d6da410af0269f4e4",
        "to": "0x0646f1f73dafab7ca1149ec781352e8b106f30a4",
        "gas": "0x1b242",
        "value": "0x0",
        "input": "0xfd84cb970000000000000000000000000000000000000000000000000000000000000004",
        "nonce": "0x11",
        "chainId": "0xaa044c"
      },
      "additionalContracts": [],
      "isFixedGasLimit": false
    },
    {
      "hash": null,
      "transactionType": "CALL",
      "contractName": "NastarEscrow",
      "contractAddress": "0x0646f1f73dafab7ca1149ec781352e8b106f30a4",
      "function": "confirmDelivery(uint256)",
      "arguments": [
        "5"
      ],
      "transaction": {
        "from": "0x1eb33c5149a6c59b766b9f0d6da410af0269f4e4",
        "to": "0x0646f1f73dafab7ca1149ec781352e8b106f30a4",
        "gas": "0x1b242",
        "value": "0x0",
        "input": "0xfd84cb970000000000000000000000000000000000000000000000000000000000000005",
        "nonce": "0x12",
        "chainId": "0xaa044c"
      },
      "additionalContracts": [],
      "isFixedGasLimit": false
    },
    {
      "hash": null,
      "transactionType": "CALL",
      "contractName": "NastarEscrow",
      "contractAddress": "0x0646f1f73dafab7ca1149ec781352e8b106f30a4",
      "function": "confirmDelivery(uint256)",
      "arguments": [
        "6"
      ],
      "transaction": {
        "from": "0x1eb33c5149a6c59b766b9f0d6da410af0269f4e4",
        "to": "0x0646f1f73dafab7ca1149ec781352e8b106f30a4",
        "gas": "0x1b242",
        "value": "0x0",
        "input": "0xfd84cb970000000000000000000000000000000000000000000000000000000000000006",
        "nonce": "0x13",
        "chainId": "0xaa044c"
      },
      "additionalContracts": [],
      "isFixedGasLimit": false
    },
    {
      "hash": null,
      "transactionType": "CALL",
      "contractName": "NastarEscrow",
      "contractAddress": "0x0646f1f73dafab7ca1149ec781352e8b106f30a4",
      "function": "confirmDelivery(uint256)",
      "arguments": [
        "7"
      ],
      "transaction": {
        "from": "0x1eb33c5149a6c59b766b9f0d6da410af0269f4e4",
        "to": "0x0646f1f73dafab7ca1149ec781352e8b106f30a4",
        "gas": "0x1b242",
        "value": "0x0",
        "input": "0xfd84cb970000000000000000000000000000000000000000000000000000000000000007",
        "nonce": "0x14",
        "chainId": "0xaa044c"
      },
      "additionalContracts": [],
      "isFixedGasLimit": false
    },
    {
      "hash": null,
      "transactionType": "CALL",
      "contractName": "NastarEscrow",
      "contractAddress": "0x0646f1f73dafab7ca1149ec781352e8b106f30a4",
      "function": "disputeDeal(uint256)",
      "arguments": [
        "9"
      ],
      "transaction": {
        "from": "0x1eb33c5149a6c59b766b9f0d6da410af0269f4e4",
        "to": "0x0646f1f73dafab7ca1149ec781352e8b106f30a4",
        "gas": "0x13c24",
        "value": "0x0",
        "input": "0xfc8edb520000000000000000000000000000000000000000000000000000000000000009",
        "nonce": "0x15",
        "chainId": "0xaa044c"
      },
      "additionalContracts": [],
      "isFixedGasLimit": false
    },
    {
      "hash": null,
      "transactionType": "CALL",
      "contractName": "NastarEscrow",
      "contractAddress": "0x0646f1f73dafab7ca1149ec781352e8b106f30a4",
      "function": "resolveDisputeWithJudge(uint256,uint256,string)",
      "arguments": [
        "9",
        "7000",
        "Delivery partially matches requirements. 3 of 5 clauses translated correctly. Seller awarded 70%."
      ],
      "transaction": {
        "from": "0xa5844eef46b34894898b7050cef5f4d225e92fbe",
        "to": "0x0646f1f73dafab7ca1149ec781352e8b106f30a4",
        "gas": "0x1e4e2",
        "value": "0x0",
        "input": "0xb51c2bbd00000000000000000000000000000000000000000000000000000000000000090000000000000000000000000000000000000000000000000000000000001b580000000000000000000000000000000000000000000000000000000000000060000000000000000000000000000000000000000000000000000000000000006144656c6976657279207061727469616c6c79206d61746368657320726571756972656d656e74732e2033206f66203520636c6175736573207472616e736c6174656420636f72726563746c792e2053656c6c65722061776172646564203730252e00000000000000000000000000000000000000000000000000000000000000",
        "nonce": "0x6a",
        "chainId": "0xaa044c"
      },
      "additionalContracts": [],
      "isFixedGasLimit": false
    }
  ],
  "receipts": [
    {
      "status": "0x1",
      "cumulativeGasUsed": "0x47139",
      "logs": [],
      "logsBloom": "0x00000000000000000000000000000000000000000000000000000000000000000000000000000000000000000000000000000000000000000000000000000000000000000000000000000000000000000000000000000000000000000000000000000000000000000000000000000000000000000000000000000000000000000000000000000000000000000000000000000000000000000000000000000000000000000000000000000000000000000000000000000000000000000000000000000000000000000000000000000000000000000000000000000000000000000000000000000000000000000000000000000000000000000000000000000000",
      "type": "0x0",
      "transactionHash": "0xd05445b0d4278764e590e1955f0f3234df871516cb765364026c43b318a4b0b9",
      "transactionIndex": "0x1",
      "blockHash": "0xcd4aa815934b9ffd60862210816c4d737956df9eb675ca78146a9065731b7176",
      "blockNumber": "0x13531d4",
      "gasUsed": "0x3bd59",
      "effectiveGasPrice": "0x66720b300",
      "from": "0xa5844eef46b34894898b7050cef5f4d225e92fbe",
      "to": null,
      "contractAddress": "0x1a9a20032f88a11f4366082605b76f815ed9257f",
      "l1BaseFeeScalar": "0x0",
      "l1BlobBaseFee": "0x1",
      "l1BlobBaseFeeScalar": "0x0",
      "l1Fee": "0x0",
      "l1GasPrice": "0x9",
      "l1GasUsed": "0x267b"
    },
    {
      "status": "0x1",
      "cumulativeGasUsed": "0x7eb17",
      "logs": [],
      "logsBloom": "0x00000000000000000000000000000000000000000000000000000000000000000000000000000000000000000000000000000000000000000000000000000000000000000000000000000000000000000000000000000000000000000000000000000000000000000000000000000000000000000000000000000000000000000000000000000000000000000000000000000000000000000000000000000000000000000000000000000000000000000000000000000000000000000000000000000000000000000000000000000000000000000000000000000000000000000000000000000000000000000000000000000000000000000000000000000000",
      "type": "0x0",
      "transactionHash": "0xb0ba85053368204f763f400279aeac2625b5b3ca79d1446d9d1841a5a26f2313",
      "transactionIndex": "0x1",
      "blockHash": "0xa8d560722778daf277eb8d87826371d9a7516c644984011d2de020eb0ef81cad",
      "blockNumber": "0x13531d8",
      "gasUsed": "0x73737",
      "effectiveGasPrice": "0x66720b300",
      "from": "0xa5844eef46b34894898b7050cef5f4d225e92fbe",
      "to": null,
      "contractAddress": "0x67d0c491bfd98da9a6ee6f114fed78db06574da2",
      "l1BaseFeeScalar": "0x0",
      "l1BlobBaseFee": "0x1",
      "l1BlobBaseFeeScalar": "0x0",
      "l1Fee": "0x0",
      "l1GasPrice": "0x9",
      "l1GasUsed": "0x4bb5"
    },
    {
      "status": "0x1",
      "cumulativeGasUsed": "0x14363d",
      "logs": [],
      "logsBloom": "0x00000000000000000000000000000000000000000000000000000000000000000000000000000000000000000000000000000000000000000000000000000000000000000000000000000000000000000000000000000000000000000000000000000000000000000000000000000000000000000000000000000000000000000000000000000000000000000000000000000000000000000000000000000000000000000000000000000000000000000000000000000000000000000000000000000000000000000000000000000000000000000000000000000000000000000000000000000000000000000000000000000000000000000000000000000000",
      "type": "0x0",
      "transactionHash": "0x30a9a19b2ff9935ec65d7162af1de625368268bc3d3b19426455e1e2b4aff799",
      "transactionIndex": "0x1",
      "blockHash": "0xf7be6c8effe4af8d8afe8efd7e598dd117e77a61c46b8312d55a0a8f1ca9cecb",
      "blockNumber": "0x13531dc",
      "gasUsed": "0x13825d",
      "effectiveGasPrice": "0x66720b300",
      "from": "0xa5844eef46b34894898b7050cef5f4d225e92fbe",
      "to": null,
      "contractAddress": "0x484aba757a92ee9b29a56b8becfd59a80fc1c46d",
      "l1BaseFeeScalar": "0x0",
      "l1BlobBaseFee": "0x1",
      "l1BlobBaseFeeScalar": "0x0",
      "l1Fee": "0x0",
      "l1GasPrice": "0x9",
      "l1GasUsed": "0xdb02"
    },
    {
      "status": "0x1",
      "cumulativeGasUsed": "0x1cbcdc",
      "logs": [],
      "logsBloom": "0x00000000000000000000000000000000000000000000000000000000000000000000000000000000000000000000000000000000000000000000000000000000000000000000000000000000000000000000000000000000000000000000000000000000000000000000000000000000000000000000000000000000000000000000000000000000000000000000000000000000000000000000000000000000000000000000000000000000000000000000000000000000000000000000000000000000000000000000000000000000000000000000000000000000000000000000000000000000000000000000000000000000000000000000000000000000",
      "type": "0x0",
      "transactionHash": "0xae110cbca61184245a25028b41bbc4833b7eb8bf0a4ce8e5cd517d4820e6b1bd",
      "transactionIndex": "0x1",
      "blockHash": "0x7bb818ed89ead97745881437bc010b7720fa1370c5f0071f30a57275ef77b670",
      "blockNumber": "0x13531e0",
      "gasUsed": "0x1c08fc",
      "effectiveGasPrice": "0x66720b300",
      "from": "0xa5844eef46b34894898b7050cef5f4d225e92fbe",
      "to": null,
      "contractAddress": "0x0646f1f73dafab7ca1149ec781352e8b106f30a4",
      "l1BaseFeeScalar": "0x0",
      "l1BlobBaseFee": "0x1",
      "l1BlobBaseFeeScalar": "0x0",
      "l1Fee": "0x0",
      "l1GasPrice": "0x9",
      "l1GasUsed": "0x12eec"
    },
    {
      "status": "0x1",
      "cumulativeGasUsed": "0x702ec",
      "logs": [],
      "logsBloom": "0x00000000000000000000000000000000000000000000000000000000000000000000000000000000000000000000000000000000000000000000000000000000000000000000000000000000000000000000000000000000000000000000000000000000000000000000000000000000000000000000000000000000000000000000000000000000000000000000000000000000000000000000000000000000000000000000000000000000000000000000000000000000000000000000000000000000000000000000000000000000000000000000000000000000000000000000000000000000000000000000000000000000000000000000000000000000",
      "type": "0x0",
      "transactionHash": "0xbc928dcd404eb021359ad119f1754b01f8487c2f5de5b940b0f9f110eb17e581",
      "transactionIndex": "0x3",
      "blockHash": "0xdff691517585e7fa14beeb4fc8eea5164f3fd253eaca70afaefe8af2172646ee",
      "blockNumber": "0x13531e4",
      "gasUsed": "0x1026b",
      "effectiveGasPrice": "0x66720b300",
      "from": "0xa5844eef46b34894898b7050cef5f4d225e92fbe",
      "to": "0x1a9a20032f88a11f4366082605b76f815ed9257f",
      "contractAddress": null,
      "l1BaseFeeScalar": "0x0",
      "l1BlobBaseFee": "0x1",
      "l1BlobBaseFeeScalar": "0x0",
      "l1Fee": "0x0",
      "l1GasPrice": "0x9",
      "l1GasUsed": "0x640"
    },
    {
      "status": "0x1",
      "cumulativeGasUsed": "0x1737f",
      "logs": [],
      "logsBloom": "0x00000000000000000000000000000000000000000000000000000000000000000000000000000000000000000000000000000000000000000000000000000000000000000000000000000000000000000000000000000000000000000000000000000000000000000000000000000000000000000000000000000000000000000000000000000000000000000000000000000000000000000000000000000000000000000000000000000000000000000000000000000000000000000000000000000000000000000000000000000000000000000000000000000000000000000000000000000000000000000000000000000000000000000000000000000000",
      "type": "0x0",
      "transactionHash": "0x0632fef88ef994ad7396d188106dcf3c4169c55aa96aca9bd371fa8423b5aa91",
      "transactionIndex": "0x1",
      "blockHash": "0x59d6c3c97e7b463923e1debb53d1ce672aefc61479a35a58c5cf770e4d73e909",
      "blockNumber": "0x13531e8",
      "gasUsed": "0xbf9f",
      "effectiveGasPrice": "0x66720b300",
      "from": "0xa5844eef46b34894898b7050cef5f4d225e92fbe",
      "to": "0x1a9a20032f88a11f4366082605b76f815ed9257f",
      "contractAddress": null,
      "l1BaseFeeScalar": "0x0",
      "l1BlobBaseFee": "0x1",
      "l1BlobBaseFeeScalar": "0x0",
      "l1Fee": "0x0",
      "l1GasPrice": "0x9",
      "l1GasUsed": "0x640"
    },
    {
      "status": "0x1",
      "cumulativeGasUsed": "0x1737f",
      "logs": [],
      "logsBloom": "0x00000000000000000000000000000000000000000000000000000000000000000000000000000000000000000000000000000000000000000000000000000000000000000000000000000000000000000000000000000000000000000000000000000000000000000000000000000000000000000000000000000000000000000000000000000000000000000000000000000000000000000000000000000000000000000000000000000000000000000000000000000000000000000000000000000000000000000000000000000000000000000000000000000000000000000000000000000000000000000000000000000000000000000000000000000000",
      "type": "0x0",
      "transactionHash": "0x3ebe2bfa1e1631b2a82ad55dfd9f5f3941c137ccbe7b05a4817810c4336f40fa",
      "transactionIndex": "0x1",
      "blockHash": "0xd88c8fa31bc1fda9ea09d9ff588038ffc92fd66050be129a0c6e09f52db2da60",
      "blockNumber": "0x13531ec",
      "gasUsed": "0xbf9f",
      "effectiveGasPrice": "0x66720b300",
      "from": "0xa5844eef46b34894898b7050cef5f4d225e92fbe",
      "to": "0x1a9a20032f88a11f4366082605b76f815ed9257f",
      "contractAddress": null,
      "l1BaseFeeScalar": "0x0",
      "l1BlobBaseFee": "0x1",
      "l1BlobBaseFeeScalar": "0x0",
      "l1Fee": "0x0",
      "l1GasPrice": "0x9",
      "l1GasUsed": "0x640"
    },
    {
      "status": "0x1",
      "cumulativeGasUsed": "0x1737f",
      "logs": [],
      "logsBloom": "0x00000000000000000000000000000000000000000000000000000000000000000000000000000000000000000000000000000000000000000000000000000000000000000000000000000000000000000000000000000000000000000000000000000000000000000000000000000000000000000000000000000000000000000000000000000000000000000000000000000000000000000000000000000000000000000000000000000000000000000000000000000000000000000000000000000000000000000000000000000000000000000000000000000000000000000000000000000000000000000000000000000000000000000000000000000000",
      "type": "0x0",
      "transactionHash": "0xfa747f06cbd6ef85b8447d4d31f6381a77f6985f16b136cf0ee61a1d969ad1bd",
      "transactionIndex": "0x1",
      "blockHash": "0x272d31f2dcc37fb175efad5bc2083fa607f8b03ab2d0a460728e8b78180cfe9f",
      "blockNumber": "0x13531f0",
      "gasUsed": "0xbf9f",
      "effectiveGasPrice": "0x66720b300",
      "from": "0xa5844eef46b34894898b7050cef5f4d225e92fbe",
      "to": "0x1a9a20032f88a11f4366082605b76f815ed9257f",
      "contractAddress": null,
      "l1BaseFeeScalar": "0x0",
      "l1BlobBaseFee": "0x1",
      "l1BlobBaseFeeScalar": "0x0",
      "l1Fee": "0x0",
      "l1GasPrice": "0x9",
      "l1GasUsed": "0x640"
    },
    {
      "status": "0x1",
      "cumulativeGasUsed": "0x1737f",
      "logs": [],
      "logsBloom": "0x00000000000000000000000000000000000000000000000000000000000000000000000000000000000000000000000000000000000000000000000000000000000000000000000000000000000000000000000000000000000000000000000000000000000000000000000000000000000000000000000000000000000000000000000000000000000000000000000000000000000000000000000000000000000000000000000000000000000000000000000000000000000000000000000000000000000000000000000000000000000000000000000000000000000000000000000000000000000000000000000000000000000000000000000000000000",
      "type": "0x0",
      "transactionHash": "0xb3b83be6783eebfc3346868dc63aac02d315927a1e2164e4f608bac1960f3c66",
      "transactionIndex": "0x1",
      "blockHash": "0x586beb02050add24d409eadc737aa1e18a3d306c8268ae1605ad635bd2ab5e2d",
      "blockNumber": "0x13531f5",
      "gasUsed": "0xbf9f",
      "effectiveGasPrice": "0x66720b300",
      "from": "0xa5844eef46b34894898b7050cef5f4d225e92fbe",
      "to": "0x1a9a20032f88a11f4366082605b76f815ed9257f",
      "contractAddress": null,
      "l1BaseFeeScalar": "0x0",
      "l1BlobBaseFee": "0x1",
      "l1BlobBaseFeeScalar": "0x0",
      "l1Fee": "0x0",
      "l1GasPrice": "0x9",
      "l1GasUsed": "0x640"
    },
    {
      "status": "0x1",
      "cumulativeGasUsed": "0x794ca",
      "logs": [
        {
          "address": "0x484aba757a92ee9b29a56b8becfd59a80fc1c46d",
          "topics": [
            "0x6e02f3582baab8ea69670589bccc675b69e5c12f51ff41245c97ae066151fa1f",
            "0x0000000000000000000000000000000000000000000000000000000000000000",
            "0x95f7801c97b17401c2c5a5b8fdb4f956cc377f647e35794f5b5da6aed60cd40d"
          ],
          "data": "0x",
          "blockHash": "0x6b6b0820bfff913e994519facce146d79178e79ee3949b6cc792041e627f37d4",
          "blockNumber": "0x13531fa",
          "transactionHash": "0xa0384a2aa76ad0e02870c3dd236979eb8b2354de4c1b4a80709f6f002c673b6a",
          "transactionIndex": "0x1",
          "logIndex": "0x0",
          "removed": false
        },
        {
          "address": "0x484aba757a92ee9b29a56b8becfd59a80fc1c46d",
          "topics": [
            "0x6e02f3582baab8ea69670589bccc675b69e5c12f51ff41245c97ae066151fa1f",
            "0x0000000000000000000000000000000000000000000000000000000000000000",
            "0x9042323cd85c6576992d211de34b3ecc183f15e4f639aa87859882f839c374e5"
          ],
          "data": "0x",
          "blockHash": "0x6b6b0820bfff913e994519facce146d79178e79ee3949b6cc792041e627f37d4",
          "blockNumber": "0x13531fa",
          "transactionHash": "0xa0384a2aa76ad0e02870c3dd236979eb8b2354de4c1b4a80709f6f002c673b6a",
          "transactionIndex": "0x1",
          "logIndex": "0x1",
          "removed": false
        },
        {
          "address": "0x484aba757a92ee9b29a56b8becfd59a80fc1c46d",
          "topics": [
            "0x2f97baea4f38ff977318c4e4648cfa7b665121ba164e1cb7070d29a78f59f475",
            "0x0000000000000000000000000000000000000000000000000000000000000000",
            "0x0000000000000000000000000000000000000000000000000000000000000000",
            "0x000000000000000000000000a5844eef46b34894898b7050cef5f4d225e92fbe"
          ],
          "data": "0x00000000000000000000000000000000000000000000000000000000000000400000000000000000000000000000000000000000000000001bc16d674ec80000000000000000000000000000000000000000000000000000000000000000001657656220526573656172636820262053756d6d61727900000000000000000000",
          "blockHash": "0x6b6b0820bfff913e994519facce146d79178e79ee3949b6cc792041e627f37d4",
          "blockNumber": "0x13531fa",
          "transactionHash": "0xa0384a2aa76ad0e02870c3dd236979eb8b2354de4c1b4a80709f6f002c673b6a",
          "transactionIndex": "0x1",
          "logIndex": "0x2",
          "removed": false
        }
      ],
      "logsBloom": "0x00000000400000000000000000000000000000000000000000000000000000008000000000000000000000000000000000400000000000000000000000000000010000100000200000000000000000000000000000000000000000000000000000000000020400000000000000000800000001000000004000000000000000000000000000000000000000000000000000000000000000000000000000000000400000000000000000000000000000000001000000000000000000000000000090000000000000000000000000000000000000000000000000000000000020000000000000011000000000100000004000080000000000000000000000000000",
      "type": "0x0",
      "transactionHash": "0xa0384a2aa76ad0e02870c3dd236979eb8b2354de4c1b4a80709f6f002c673b6a",
      "transactionIndex": "0x1",
      "blockHash": "0x6b6b0820bfff913e994519facce146d79178e79ee3949b6cc792041e627f37d4",
      "blockNumber": "0x13531fa",
      "gasUsed": "0x6e0ea",
      "effectiveGasPrice": "0x66720b300",
      "from": "0xa5844eef46b34894898b7050cef5f4d225e92fbe",
      "to": "0x484aba757a92ee9b29a56b8becfd59a80fc1c46d",
      "contractAddress": null,
      "l1BaseFeeScalar": "0x0",
      "l1BlobBaseFee": "0x1",
      "l1BlobBaseFeeScalar": "0x0",
      "l1Fee": "0x0",
      "l1GasPrice": "0x9",
      "l1GasUsed": "0x1323"
    },
    {
      "status": "0x1",
      "cumulativeGasUsed": "0x889ae",
      "logs": [
        {
          "address": "0x484aba757a92ee9b29a56b8becfd59a80fc1c46d",
          "topics": [
            "0x6e02f3582baab8ea69670589bccc675b69e5c12f51ff41245c97ae066151fa1f",
            "0x0000000000000000000000000000000000000000000000000000000000000001",
            "0xd3d9c5a1a300197017336746fd151d5b12bec65c878b0b75ac745337145036bd"
          ],
          "data": "0x",
          "blockHash": "0x59da5aecf4493ae435cb74b1f16870b447a2cf06c4520fa32cdfd001c4ce5b32",
          "blockNumber": "0x13531fe",
          "transactionHash": "0x6cc984338b30a74bc241b693223c5beffb528980b5bea53cd7849cb9ba898a76",
          "transactionIndex": "0x1",
          "logIndex": "0x0",
          "removed": false
        },
        {
          "address": "0x484aba757a92ee9b29a56b8becfd59a80fc1c46d",
          "topics": [
            "0x6e02f3582baab8ea69670589bccc675b69e5c12f51ff41245c97ae066151fa1f",
            "0x0000000000000000000000000000000000000000000000000000000000000001",
            "0x829231cb167e02f32beea96e7533af0ebdf9e1f7ccf9a7270e717c48fe6f0e8e"
          ],
          "data": "0x",
          "blockHash": "0x59da5aecf4493ae435cb74b1f16870b447a2cf06c4520fa32cdfd001c4ce5b32",
          "blockNumber": "0x13531fe",
          "transactionHash": "0x6cc984338b30a74bc241b693223c5beffb528980b5bea53cd7849cb9ba898a76",
          "transactionIndex": "0x1",
          "logIndex": "0x1",
          "removed": false
        },
        {
          "address": "0x484aba757a92ee9b29a56b8becfd59a80fc1c46d",
          "topics": [
            "0x2f97baea4f38ff977318c4e4648cfa7b665121ba164e1cb7070d29a78f59f475",
            "0x0000000000000000000000000000000000000000000000000000000000000001",
            "0x0000000000000000000000000000000000000000000000000000000000000001",
            "0x000000000000000000000000a5844eef46b34894898b7050cef5f4d225e92fbe"
          ],
          "data": "0x00000000000000000000000000000000000000000000000000000000000000400000000000000000000000000000000000000000000000000de0b6b3a764000000000000000000000000000000000000000000000000000000000000000000194d756c74692d4c616e6775616765205472616e736c61746f7200000000000000",
          "blockHash": "0x59da5aecf4493ae435cb74b1f16870b447a2cf06c4520fa32cdfd001c4ce5b32",
          "blockNumber": "0x13531fe",
          "transactionHash": "0x6cc984338b30a74bc241b693223c5beffb528980b5bea53cd7849cb9ba898a76",
          "transactionIndex": "0x1",
          "logIndex": "0x2",
          "removed": false
        }
      ],
      "logsBloom": "0x00000000400000000000000000000000000000000000000000010000000000008000000000000000000000000000000000000000080000000000000400040000010000100000200000200000000100000000000000040000000000000000000000000000000400000000000000000000000001000000004000000000000000000000000000000000000000000000000000000000000000000000000000000000000000000000000000000000000000000000000000000000000000000000000000000000000000000000000000000000000000000000000000000000000040000000000000011000000000100000800000080000000000000000000000000000",
      "type": "0x0",
      "transactionHash": "0x6cc984338b30a74bc241b693223c5beffb528980b5bea53cd7849cb9ba898a76",
      "transactionIndex": "0x1",
      "blockHash": "0x59da5aecf4493ae435cb74b1f16870b447a2cf06c4520fa32cdfd001c4ce5b32",
      "blockNumber": "0x13531fe",
      "gasUsed": "0x7d5ce",
      "effectiveGasPrice": "0x66720b300",
      "from": "0xa5844eef46b34894898b7050cef5f4d225e92fbe",
      "to": "0x484aba757a92ee9b29a56b8becfd59a80fc1c46d",
      "contractAddress": null,
      "l1BaseFeeScalar": "0x0",
      "l1BlobBaseFee": "0x1",
      "l1BlobBaseFeeScalar": "0x0",
      "l1Fee": "0x0",
      "l1GasPrice": "0x9",
      "l1GasUsed": "0x147f"
    },
    {
      "status": "0x1",
      "cumulativeGasUsed": "0x88966",
      "logs": [
        {
          "address": "0x484aba757a92ee9b29a56b8becfd59a80fc1c46d",
          "topics": [
            "0x6e02f3582baab8ea69670589bccc675b69e5c12f51ff41245c97ae066151fa1f",
            "0x0000000000000000000000000000000000000000000000000000000000000002",
            "0x2dc081a8d6d4714c79b5abd2e9b08c3a33b4ef1dcf946ef8b8cf6c495014f47b"
          ],
          "data": "0x",
          "blockHash": "0x2a8dc93cedf4e3782b9ba7fe802804ae0a00e41e1d3095b43a650dde9ab09dca",
          "blockNumber": "0x1353202",
          "transactionHash": "0x4afb10c32e0c8e9a1e2f5fab4a4291e34f49605aa9b1834ba59feee0084a7189",
          "transactionIndex": "0x1",
          "logIndex": "0x0",
          "removed": false
        },
        {
          "address": "0x484aba757a92ee9b29a56b8becfd59a80fc1c46d",
          "topics": [
            "0x6e02f3582baab8ea69670589bccc675b69e5c12f51ff41245c97ae066151fa1f",
            "0x0000000000000000000000000000000000000000000000000000000000000002",
            "0xa477d97b122e6356d32a064f9ee824230d42d04c7d66d8e7d125a091a42b0b25"
          ],
          "data": "0x",
          "blockHash": "0x2a8dc93cedf4e3782b9ba7fe802804ae0a00e41e1d3095b43a650dde9ab09dca",
          "blockNumber": "0x1353202",
          "transactionHash": "0x4afb10c32e0c8e9a1e2f5fab4a4291e34f49605aa9b1834ba59feee0084a7189",
          "transactionIndex": "0x1",
          "logIndex": "0x1",
          "removed": false
        },
        {
          "address": "0x484aba757a92ee9b29a56b8becfd59a80fc1c46d",
          "topics": [
            "0x2f97baea4f38ff977318c4e4648cfa7b665121ba164e1cb7070d29a78f59f475",
            "0x0000000000000000000000000000000000000000000000000000000000000002",
            "0x0000000000000000000000000000000000000000000000000000000000000002",
            "0x000000000000000000000000a5844eef46b34894898b7050cef5f4d225e92fbe"
          ],
          "data": "0x00000000000000000000000000000000000000000000000000000000000000400000000000000000000000000000000000000000000000004563918244f400000000000000000000000000000000000000000000000000000000000000000019536f6c69646974792026204a5320436f64652052657669657700000000000000",
          "blockHash": "0x2a8dc93cedf4e3782b9ba7fe802804ae0a00e41e1d3095b43a650dde9ab09dca",
          "blockNumber": "0x1353202",
          "transactionHash": "0x4afb10c32e0c8e9a1e2f5fab4a4291e34f49605aa9b1834ba59feee0084a7189",
          "transactionIndex": "0x1",
          "logIndex": "0x2",
          "removed": false
        }
      ],
      "logsBloom": "0x04000000400000000000100000000000000000000000000000000000000200008000000000000000000000000000000000000000000000000000000000000000810000100000200000000000000000001000000000000000000000000000000000000000000480000000080000000000000001000000004000000000000000000000000000000000000000000000000000000000000000000000000000000000000000000000000000000100000000000000000000000000000000000000000000000000000000000000000000000000000000000000000000000000000000000000000000011000000000100000000000080000008000000000000000000000",
      "type": "0x0",
      "transactionHash": "0x4afb10c32e0c8e9a1e2f5fab4a4291e34f49605aa9b1834ba59feee0084a7189",
      "transactionIndex": "0x1",
      "blockHash": "0x2a8dc93cedf4e3782b9ba7fe802804ae0a00e41e1d3095b43a650dde9ab09dca",
      "blockNumber": "0x1353202",
      "gasUsed": "0x7d586",
      "effectiveGasPrice": "0x66720b300",
      "from": "0xa5844eef46b34894898b7050cef5f4d225e92fbe",
      "to": "0x484aba757a92ee9b29a56b8becfd59a80fc1c46d",
      "contractAddress": null,
      "l1BaseFeeScalar": "0x0",
      "l1BlobBaseFee": "0x1",
      "l1BlobBaseFeeScalar": "0x0",
      "l1Fee": "0x0",
      "l1GasPrice": "0x9",
      "l1GasUsed": "0x143c"
    },
    {
      "status": "0x1",
      "cumulativeGasUsed": "0x8894e",
      "logs": [
        {
          "address": "0x484aba757a92ee9b29a56b8becfd59a80fc1c46d",
          "topics": [
            "0x6e02f3582baab8ea69670589bccc675b69e5c12f51ff41245c97ae066151fa1f",
            "0x0000000000000000000000000000000000000000000000000000000000000003",
            "0x8f54f1c2d0eb5771cd5bf67a6689fcd6eed9444d91a39e5ef32a9b4ae5ca14ff"
          ],
          "data": "0x",
          "blockHash": "0x5c7a489263c06b281e81def5fbde521bcb86b795746e2be45355502aeb3c8d87",
          "blockNumber": "0x1353207",
          "transactionHash": "0x696baaae1a262d5005e4463b84aad28dd899e16773bf3831fa962d166d226a34",
          "transactionIndex": "0x1",
          "logIndex": "0x0",
          "removed": false
        },
        {
          "address": "0x484aba757a92ee9b29a56b8becfd59a80fc1c46d",
          "topics": [
            "0x6e02f3582baab8ea69670589bccc675b69e5c12f51ff41245c97ae066151fa1f",
            "0x0000000000000000000000000000000000000000000000000000000000000003",
            "0x3fdbd17cead3ecfb37763e5ab06b1af4d166e44012e5a50d75711460f00454d9"
          ],
          "data": "0x",
          "blockHash": "0x5c7a489263c06b281e81def5fbde521bcb86b795746e2be45355502aeb3c8d87",
          "blockNumber": "0x1353207",
          "transactionHash": "0x696baaae1a262d5005e4463b84aad28dd899e16773bf3831fa962d166d226a34",
          "transactionIndex": "0x1",
          "logIndex": "0x1",
          "removed": false
        },
        {
          "address": "0x484aba757a92ee9b29a56b8becfd59a80fc1c46d",
          "topics": [
            "0x2f97baea4f38ff977318c4e4648cfa7b665121ba164e1cb7070d29a78f59f475",
            "0x0000000000000000000000000000000000000000000000000000000000000003",
            "0x0000000000000000000000000000000000000000000000000000000000000003",
            "0x000000000000000000000000a5844eef46b34894898b7050cef5f4d225e92fbe"
          ],
          "data": "0x000000000000000000000000000000000000000000000000000000000000004000000000000000000000000000000000000000000000000029a2241af62c000000000000000000000000000000000000000000000000000000000000000000174f6e2d436861696e204461746120416e616c7974696373000000000000000000",
          "blockHash": "0x5c7a489263c06b281e81def5fbde521bcb86b795746e2be45355502aeb3c8d87",
          "blockNumber": "0x1353207",
          "transactionHash": "0x696baaae1a262d5005e4463b84aad28dd899e16773bf3831fa962d166d226a34",
          "transactionIndex": "0x1",
          "logIndex": "0x2",
          "removed": false
        }
      ],
      "logsBloom": "0x00000000400000000000000000000000000000000000000000000000000000009000000000000000000000000000000000000000020000000000000000000000010000100000200000000000000000000000000000000000000000000000000000000000000402000000000000000000000001000000004000000000000000000000000000000000000000000000000000000000000000800000000000000000000000000000000400000000000000000000000000800000000000000000400000000000000000000000000040000000000000000000000008000000000000000000000000011000000000100000000000080000000000000000000000000000",
      "type": "0x0",
      "transactionHash": "0x696baaae1a262d5005e4463b84aad28dd899e16773bf3831fa962d166d226a34",
      "transactionIndex": "0x1",
      "blockHash": "0x5c7a489263c06b281e81def5fbde521bcb86b795746e2be45355502aeb3c8d87",
      "blockNumber": "0x1353207",
      "gasUsed": "0x7d56e",
      "effectiveGasPrice": "0x66720b300",
      "from": "0xa5844eef46b34894898b7050cef5f4d225e92fbe",
      "to": "0x484aba757a92ee9b29a56b8becfd59a80fc1c46d",
      "contractAddress": null,
      "l1BaseFeeScalar": "0x0",
      "l1BlobBaseFee": "0x1",
      "l1BlobBaseFeeScalar": "0x0",
      "l1Fee": "0x0",
      "l1GasPrice": "0x9",
      "l1GasUsed": "0x1472"
    },
    {
      "status": "0x1",
      "cumulativeGasUsed": "0x1b74c",
      "logs": [],
      "logsBloom": "0x00000000000000000000000000000000000000000000000000000000000000000000000000000000000000000000000000000000000000000000000000000000000000000000000000000000000000000000000000000000000000000000000000000000000000000000000000000000000000000000000000000000000000000000000000000000000000000000000000000000000000000000000000000000000000000000000000000000000000000000000000000000000000000000000000000000000000000000000000000000000000000000000000000000000000000000000000000000000000000000000000000000000000000000000000000000",
      "type": "0x0",
      "transactionHash": "0xbc4c44194b0d3e47fec7acb43fe84841adcb73673b4ad8762962de68bb2aa707",
      "transactionIndex": "0x1",
      "blockHash": "0x263dcab01d6d0a295c8fa6be5726ac3e9c218f1174dd395c775ae9caeb0348f8",
      "blockNumber": "0x135320c",
      "gasUsed": "0x1036c",
      "effectiveGasPrice": "0x66720b300",
      "from": "0xa5844eef46b34894898b7050cef5f4d225e92fbe",
      "to": "0x67d0c491bfd98da9a6ee6f114fed78db06574da2",
      "contractAddress": null,
      "l1BaseFeeScalar": "0x0",
      "l1BlobBaseFee": "0x1",
      "l1BlobBaseFeeScalar": "0x0",
      "l1Fee": "0x0",
      "l1GasPrice": "0x9",
      "l1GasUsed": "0x640"
    }
  ],
  "libraries": [],
  "pending": [],
  "returns": {},
  "timestamp": 1773547436579,
  "chain": 11142220,
  "commit": null
}